:100000000C9446000C946E000C946E000C946E00E0
:100010000C946E000C946E000C946E000C946E00A8
:100020000C946E000C946E000C946E000C946E0098
:100030000C946E000C946E000C9476080C946E0078
:100040000C946E000C946E000C946E000C946E0078
:100050000C946E000C946E000C946E000C946E0068
:100060000C946E000C946E00E701F4000101250170
:100070004501E701E701E7014202450248024B0260
:100080004E02510254025702010B090B11241FBEEC
:10009000CFEFD8E0DEBFCDBF12E0A0E0B1E0E0E4FA
:1000A000F6E102C005900D92A237B107D9F712E030
:1000B000A2E7B2E001C01D92A13DB107E1F710E057
:1000C000CCE8D0E004C02297FE010E941A0BC83889
:1000D000D107C9F70E94FD0A0C941E0B0C94000076
:1000E0000F93529A569A80E992E00E94BA088AE8E1
:1000F00092E00E94A0070EED22E048EA60EC87E75C
:1001000092E00E94320389E892E00E94030449E0F1
:1001100050E060E070E08BE892E00F910C94AC0747
:10012000CF93DF93CDB7DEB7C258D1090FB6F8949D
:10013000DEBF0FBECDBF0E946C08C0908C02D09075
:100140008D02E0908E02F0908F0280918C0290914F
:100150008D02A0918E02B0918F0240908C0250903F
:100160008D0260908E0270908F0220918C023091EF
:100170008D0240918E0250918F02C358DF4F288329
:1001800039834A835B83CD57D04061E0CE018B59E0
:100190009F4F0E945D0467E971E08BE892E00E9446
:1001A000CC0722242394312C95E1992E24E0822E31
:1001B00080918C0290918D02A0918E02B0918F025D
:1001C00080918C0290918D02A0918E02B0918F024D
:1001D000A796EEADFFADA797E830F10508F007C18F
:1001E000EC5CFF4F0C94180B6FEFCE018B599F4FB7
:1001F0000E941B0542E050E0A7965FAF4EAFA79765
:10020000FAC062E67BE1CE018B599F4F0E948C04BD
:10021000CE018B599F4F0E941006892B79F0CE0199
:100220008B599F4F0E945E06892B09F4E4C083E03E
:1002300090E0A7969FAF8EAFA797DDC06CEF71E0FF
:100240008BE892E00E94DE07D2C0CE018B599F4F0F
:100250000E943E05873021F4A7961FAE1EAEA797D9
:10026000CE018B599F4F0E949004892B09F4C3C083
:100270006BEC71E08BE892E00E94CC07A4E0B0E068
:10028000A796BFAFAEAFA797B6C0CE018B599F4F11
:100290000E9468055C01009709F47FC08091750297
:1002A000909176020196909376028093750244E6CF
:1002B00050E0BE016F5F7F4FCE018B599F4F0E9470
:1002C00084068E010F5F1F4FA00EB11E0A151B057D
:1002D000F9F0CF57DF4F19830883C158D040D801B8
:1002E0006D918D0181E992E00E94E108CF57DF4FC7
:1002F000E881F981C158D04060818BE892E00E948A
:10030000F00768E272E08BE892E00E94DE07DECF41
:1003100066E072E08BE892E00E94DE071AE081E975
:1003200092E00E94E00A892B89F5609192028BE8A5
:1003300092E00E94F00768E272E08BE892E00E948F
:10034000DE07609193028BE892E00E94F00768E27A
:1003500072E08BE892E00E94DE07609194028BE8E5
:1003600092E00E94F00768E272E08BE892E00E945F
:10037000DE07609195028BE892E00E94F0076FE043
:1003800072E08BE892E00E94DE0707C081E992E00C
:100390000E94E40A115019F6C8CFCE018B599F4F25
:1003A0000E94F104182F882331F16EED71E08BE883
:1003B00092E00E94CC07612F8BE892E00E94F00748
:1003C0006AE671E08BE892E00E94CC0710C062E11F
:1003D00072E08BE892E00E94DE07CE018B599F4FBE
:1003E0000E94BD04CE018B599F4F0E949F04A79687
:1003F0003FAE2EAEA797A7962EAD3FADA7978091A3
:100400008C0290918D02A0918E02B0918F028C1976
:100410009D09AE09BF0988399A43A105B10540F489
:10042000A9968EAD9FADA9978217930709F47FC057
:10043000A9963FAF2EAFA997C0908C02D0908D02A5
:10044000E0908E02F0908F026DE771E08BE892E011
:100450000E94CC07A6966FADA6978BE892E00E940B
:10046000F00760E28BE892E00E94C5075D9AA796CC
:10047000EEADFFADA797E830F105E0F4E45CFF4F87
:100480000C94180B64E671E017C068E571E014C0C5
:100490006EE471E011C062E471E00EC061E371E0EE
:1004A0000BC061E271E008C066E171E005C06DE07B
:1004B00071E002C060E071E08BE892E00E94CC073E
:1004C00065E272E08BE892E00E94DE07CE018B5974
:1004D0009F4F0E940E05682F8BE892E00E94F00764
:1004E0006AE272E08BE892E00E94DE07CE018B594F
:1004F0009F4F0E941405682F8BE892E00E94F0073E
:1005000061E372E08BE892E00E94DE07CE018B5936
:100510009F4F0E943E05682F8BE892E00E94F007F3
:1005200066E771E08BE892E00E94CC075D988091CD
:100530008C0290918D02A0918E02B0918F02C358CF
:10054000DF4F288139814A815B81CD57D040821BA2
:10055000930BA40BB50B0597A105B10508F444C096
:1005600020918C0230918D0240918E0250918F0229
:10057000C358DF4F288339834A835B83CD57D040EC
:1005800080919202899D802D1124EB968FAFEB977D
:1005900080919302899D802D1124EC968FAFEC976A
:1005A00080919402899D802D1124ED968FAFED9757
:1005B000E2E7F2E0DE01A658BF4F80819D918917E6
:1005C00010F48F5F80838081981710F481508083AE
:1005D000319632E0E537F30781F743E062E772E0F6
:1005E00080E992E00E949B0880918C0290918D029C
:1005F000A0918E02B0918F0284199509A609B709BE
:10060000843F9140A105B10558F040908C02509074
:100610008D0260908E0270908F028BB188258BB90D
:10062000CE018B599F4F0E948805C2CDFC019AE0F4
:100630009083118212828BE78383148288E0858302
:100640008CED86838EED87838FEA808781E08187BA
:1006500092871386148685878FEF86878787808B9E
:10066000118A08950F93FC016083418322830383E1
:100670000F910895FC0163830895CF92EF920F9339
:10068000FC016483458326830783E086C1860F913E
:10069000EF90CF900895FC01618708950F93FC01BE
:1006A00062874387248705870F9108950F93FC0184
:1006B00066874787208B018B0F910895229A0895B2
:1006C000EF92FF920F931F93CF93DF9300D0CDB79C
:1006D000DEB7162F2A9860EF8AE892E02A834983D2
:1006E0000E94A607F82E612F8AE892E00E94A607D2
:1006F000082F10E00F0D111D4981642F8AE892E048
:100700000E94A607E82EF12CE00EF11C2A81622F30
:100710008AE892E00E94A6072A9A8E0D0F900F9009
:10072000DF91CF911F910F91FF90EF9008951F934C
:10073000CF93DF931F92CDB7DEB7162F2A986FE0C5
:100740008AE892E049830E94A607612F8AE892E036
:100750000E94A6074981642F8AE892E00E94A607BA
:1007600064E18AE892E00E94A6072A9A0F90DF913E
:10077000CF911F910895CF92DF92EF92FF920F9346
:100780001F93CF93DF936C017901EB01E60EF71E07
:100790008A01CE15DF0549F0402F612FC6010E9466
:1007A000970389930F5F1F4FF4CF1882DF91CF918A
:1007B0001F910F91FF90EF90DF90CF900895CF920F
:1007C000DF92EF92FF920F931F93CF93DF936C0111
:1007D00079018B01E40EF51EEA01CE15DF0551F01B
:1007E000F80121918F014C2F6D2FC6010E946003EB
:1007F0002196F3CFDF91CF911F910F91FF90EF9052
:10080000DF90CF900895EF92FF920F931F93CF93B5
:10081000DF931F92CDB7DEB77C0120E840E060E0B7
:100820000E9460032FEF46E160E0C7010E94600371
:1008300001E812E031E0F80121918F01432F60E0DF
:10084000C70139830E94600339813F5F353099F7D2
:1008500005E812E0F80121918F01432F60E0C70104
:1008600039830E94600339813F5F393099F70BE784
:1008700012E0F80121918F01432F60E0C701398315
:100880000E94600339813F5F3F3099F707E712E02C
:10089000F80121918F01432F60E0C70139830E9445
:1008A000600339813F5F333199F70F90DF91CF912A
:1008B0001F910F91FF90EF900895FC01262F118258
:1008C00010821382128240918C0250918D026091AD
:1008D0008E0270918F02448355836683778380E311
:1008E00095E791878087243028F484E0820F808BFD
:1008F000218B089583E6808B8FE5818B0895FC0121
:10090000168620E527870895FC01168667870895D7
:10091000FC01668747870895FC01678776870895FD
:1009200043E0FC01608989E892E00E94970321E09E
:1009300030E0873111F020E030E0C901089520E176
:1009400041E0FC01608989E892E00C946003CF9358
:10095000DF93EC0142E0688989E892E00E94970306
:1009600083FF06C0CE010E949F0481E090E002C098
:1009700080E090E0DF91CF91089528E041E0FC0114
:10098000608989E892E00C946003CF93DF93EC01D7
:1009900042E0688989E892E00E94970381FF06C0DF
:1009A000CE010E94BD0481E090E002C080E090E0B2
:1009B000DF91CF910895CF93DF93EC0142E06889F6
:1009C00089E892E00E94970381FF06C0CE010E9451
:1009D000BD0481E090E002C080E090E0DF91CF9123
:1009E00008950F931F93CF93DF938C010E94A70468
:1009F000EC01C8010E94DB04880F991FC80FD91FA2
:100A0000C8010E94C504880F991F880F991F8C0F79
:100A10009D1FDF91CF911F910F91089543E060E0FA
:100A200089E892E00C94970345E1FC01608989E82C
:100A300092E00C949703EF92FF921F93CF93DF9372
:100A40001F92CDB7DEB77C01262F42E0FC01608902
:100A500089E892E029830E949703182F298142E0B8
:100A6000F701608989E892E00E946003812F0F906E
:100A7000DF91CF911F91FF90EF90089542E0FC012C
:100A8000608989E892E00C9497030F931F93CF93AA
:100A9000DF931F92CDB7DEB7162F89E892E0298346
:100AA0000E949703082F2981422F612F89E892E045
:100AB0000E949703202F30E0322F2227A901480FF0
:100AC000511DCA010F90DF91CF911F910F91089591
:100AD00027E246E2FC0160890C9445050F931F93C1
:100AE000CF93DF93C62FD22F212F89E892E00E9467
:100AF0006003202F4D2F6C2F89E892E0DF91CF917A
:100B00001F910F910C946003FC0171876087089519
:100B10000F931F93CF93DF93EC01888199819C0100
:100B2000215031092230310560F440918C025091FE
:100B30008D0260918E0270918F024C835D836E8373
:100B40007F832A813B818217930779F09B838A8375
:100B500040918C0250918D0260918E0270918F02B3
:100B60004C835D836E837F8335C040918C025091AE
:100B70008D0260918E0270918F020C811D812E81F9
:100B80003F81401B510B620B730B0885198520E0D8
:100B900030E04017510762077307E0F068E372E046
:100BA0008BE892E00E94DE0740918C0250918D020A
:100BB00060918E0270918F024C835D836E837F8380
:100BC000CE010E94BD04CE010E949F0481E090E00E
:100BD00099838883DF91CF911F910F9108950F938F
:100BE0001F93CF93DF938C01C4E6D0E041E0F8017E
:100BF000608989E892E00E949703882359F08FE981
:100C00009FE00197F1F700C000002197209771F74E
:100C100080E001C081E0DF91CF911F910F91089595
:100C2000CF93DF93EC0120E141E0688989E892E00D
:100C30000E946003CE010E94EF05882381F12FEF0F
:100C400042E0688989E892E00E94600321E040E088
:100C5000688989E892E00E9460032E8544E06889F3
:100C600089E892E00E9460032F8545E0688989E861
:100C700092E00E94600321E041E0688989E892E007
:100C80000E946003CE010E94EF05882341F043E0FB
:100C9000688989E892E00E949703833151F020E14E
:100CA00041E0688989E892E00E94600380E090E07A
:100CB00002C081E090E0DF91CF910895CF93DF9360
:100CC000EC0122E041E0688989E892E00E9460033B
:100CD000CE010E94EF05882341F043E0688989E84E
:100CE00092E00E949703843151F020E141E068894D
:100CF00089E892E00E94600380E090E002C081E019
:100D000090E0DF91CF910895AF92BF92CF92DF92A2
:100D1000EF92FF920F931F93CF93DF93EC015B0150
:100D20007A0127E246E268890E9445058C0129E2A2
:100D300048E26889CE01E016F106F0F40E9445050C
:100D4000080F191F29E248E26889CE010E946E054A
:100D500020E441E0688989E892E00E946003CE01C6
:100D60000E94EF05811151C020E141E0688989E8C6
:100D700092E00E94600349C00E9445059770E9888F
:100D8000F12C2CE0E20EF11CFE2CEE24FF0CFF0CEB
:100D9000FF0CAC014E0D5F1D9C01200F311F213057
:100DA000384098F0C12C68E0D62EC81AD90A9601AE
:100DB000B50189E892E00E94BB0398012C193D0916
:100DC000B5016C0D7D1DA70102C09801B50189E830
:100DD00092E00E94BB0329E248E26889CE010E94AA
:100DE0004505080F191F29E248E26889CE010E94D3
:100DF0006E0520E441E0688989E892E00E94600382
:100E0000CE010E94EF0590E002C080E090E0DF910B
:100E1000CF911F910F91FF90EF90DF90CF90BF90F7
:100E2000AF900895AF92BF92CF92DF92EF92FF9270
:100E30000F931F93CF93DF93EC018B01FB016F01A5
:100E4000C01AD10A81918111FACFAAEEEA2EA3E04D
:100E5000FA2E21E240E26889CE010E94450521E098
:100E6000E21AF108E114F10409F45DC0EFE8F1E0E1
:100E70003197F1F700C000008C159D0550F325E275
:100E800044E26889CE010E9445059770E988F12CFB
:100E9000F8E0EF0EF11CFE2CEE24FF0CFF0CFF0C13
:100EA000AC014E0D5F1D9C012C0D3D1D21303840C5
:100EB00098F0A12CE8E0BE2EA81AB90A9501B80155
:100EC00089E892E00E94DF0396012A193B09B801E4
:100ED0006A0D7B1DA70102C09601B80189E892E066
:100EE0000E94DF0325E244E26889CE010E944505A5
:100EF0008C0123E242E26889CE010E946E050C0D4E
:100F00001D1D25E244E26889CE010E946E0520E2A3
:100F100041E0688989E892E00E946003CE010E9466
:100F2000EF05811102C080E090E0DF91CF911F9129
:100F30000F91FF90EF90DF90CF90BF90AF9008950A
:100F400084B1886284B982E58CBD08956EBD0DB40C
:100F500007FEFDCF8EB508951092C50083E3809300
:100F6000C400E0ECF0E080818D7F808386E0809398
:100F7000C20088E18093C100089508958091C00067
:100F800087FFFCCF8091C60008958091C00085FF47
:100F9000FCCF6093C60008950F931F93CF93DF9308
:100FA0008C01EB016991662321F0C8010E94C507FD
:100FB000F9CFDF91CF911F910F9108950F931F9358
:100FC000CF93DF938C01EB016991662321F0C80177
:100FD0000E94C507F9CFDF91CF911F910F9108951E
:100FE000CF92DF92EF92FF920F931F93CF93DF93F5
:100FF00000D01F92CDB7DEB77C0119821A821B8206
:101000004FE050E021E030E070E0CB01042E02C060
:10101000959587950A94E2F781709927F901A1E0E7
:10102000B0E0AC0FBD1FAE0FBF1F1C91153010F00C
:1010300003E001C000E0100F1C933196E330F1058E
:1010400074F3E1E0F0E0EC0FFD1FE20FF31FE0812D
:10105000E83010F021503109F901A1E0B0E0AC0F07
:10106000BD1FAE0FBF1F1C91110F1F7001E0119625
:10107000DC90119797E0C92ECD1408F000E0102BFA
:101080001C933196E230F10541F79B81990F9F70D7
:10109000982B9B834150510908F0B7CF8E010F5F09
:1010A0001F4F6E01E4E0CE0ED11CF8016081605D3F
:1010B00061938F01C7010E94C5070C151D05A9F793
:1010C0000F900F900F90DF91CF911F910F91FF9094
:1010D000EF90DF90CF90089582E084BD93E095BDBE
:1010E00099EF97BD80936E00789408951F920F92A8
:1010F0000FB60F9211248F939F93AF93BF9380915C
:101100008C0290918D02A0918E02B0918F02019677
:10111000A11DB11D80938C0290938D02A0938E022D
:10112000B0938F02BF91AF919F918F910F900FBE9F
:101130000F901F901895EF92FF920F931F93CF93EC
:10114000DF938B015F98EB01E42EF12CCE01801B25
:10115000910B8E159F0534F469918AE892E00E9404
:10116000A607F4CF5F9ADF91CF911F910F91FF9067
:10117000EF900895579A8AE892E00C94A007FC013A
:1011800010820895DC01D6969C91D697D596EC9165
:10119000D597F0E0E91BF109EA0FFB1F8385915019
:1011A000D6969C930895FC0186A90895FC0181AD13
:1011B0008F5F6EE10E940C0B91AF82AD8F5F82AFAB
:1011C0000895CF92DF92EF92FF920F931F93CF93E8
:1011D000DF93EC018BAD823019F178F48823B1F004
:1011E000813009F037C16CAF8FA998AD860F911D82
:1011F00098AF8FAB1DAE82E059C0843009F458C05F
:1012000008F452C0853009F456C024C16A3A09F086
:1012100022C18AEA90E098AF8FAB81E08BAF1CC10E
:101220004CAD423049F018F44423F1F114C143307D
:1012300071F04430F9F00FC19DAD81E0890F8DAFA1
:10124000FE01E90FF11D66A7823028F526C08DAD9D
:1012500021E0280F2DAFFE01E80FF11D66A7223017
:10126000E0F08FA590E0019630E082179307ACF490
:101270004BAF13C08DAD21E0280F2DAFFE01E80F5D
:10128000F11D66A7222349F08EA590E0019630E07B
:101290008217930714F483E08BAF8FA998AD860F64
:1012A000911D98AF8FABD7C06EAF84E08BAFD3C02A
:1012B0006FAF85E08BAF4EAD50E081E090E02FA99D
:1012C00038AD4217530711F080E090E02FAD922B1C
:1012D000892B29F41BAE87E08CAF8FEFBDC08CAD9E
:1012E000823079F140F48823B9F0813009F0B2C03E
:1012F0008EA58883AFC0833051F0843009F0AAC036
:10130000AFA54A2F50E020E030E0B5E08BC02FA51C
:1013100030E080E090E043C06AEACE010E94D60847
:1013200063E0CE010E94D60861E0CE010E94D6089B
:101330006881CE010E94D608088110E002551F4F37
:1013400068C06AEACE010E94D60863E0CE010E941E
:10135000D6086FA5CE010E94D6080FA510E0035550
:101360001F4FE12CF12C8FA590E0E816F90608F04C
:1013700050C08EA56E01CE0CDF1CF601E80FF11DEA
:101380006181CE010E94D6088EA5F601E80FF11DFD
:101390008181080F111D8FEFE81AF80AE4CF821738
:1013A000930750F4FE01E80FF91F40A95EA5E50F71
:1013B000F11D41830196F3CF6AEACE010E94D6085F
:1013C00063E0CE010E94D6086FA5CE010E94D60828
:1013D0000FA510E003551F4FE12CF12C8FA590E0D5
:1013E000E816F906B0F48EA56E01CE0CDF1CF601EE
:1013F000E80FF11D6181CE010E94D6088EA5F6018D
:10140000E80FF11D8181080F111D8FEFE81AF80A0E
:10141000E5CF602FCE010E94D608612FCE010E9439
:10142000D60818C08DA92417350790F491E0980FBD
:101430009DABFE01E20FF31F90A9E80FF11D93870A
:101440008EA96B2F0E940C0B9EAB2F5F3F4FEACFF4
:101450008A0F8DAB1BAE81E0DF91CF911F910F9171
:10146000FF90EF90DF90CF9008951F93CF93DF937D
:10147000EC01162F6AEA0E94D60866E0CE010E94AF
:10148000D608112331F061E0CE010E94D60861EB4D
:1014900005C060E0CE010E94D60860EBCE010E943C
:1014A000D60860E0CE01DF91CF911F910C94D60851
:1014B0008F929F92AF92BF92CF92DF92EF92FF9264
:1014C0000F931F93CF93DF9300D0CDB7DEB74C01BE
:1014D000162F69016AEA49835A830E94D60862E09E
:1014E000C4010E94D608612FC4010E94D6086C2D49
:1014F000C4010E94D60876018CEAE80EF11CE10EC8
:10150000F11C4981042F5A81152FC00ED11E0C15D4
:101510001D0561F05801F80161918F01C4010E941D
:10152000D608F5018081E80EF11CF1CF6E2DC401C3
:101530000E94D6086F2DC4010F900F90DF91CF91BC
:101540001F910F91FF90EF90DF90CF90BF90AF90E1
:101550009F908F900C94D608EF92FF920F931F9359
:10156000CF93DF931F92CDB7DEB77C01062F6AEAD7
:1015700049830E94D60862E0C7010E94D608602F06
:10158000C7010E94D60861E0C7010E94D60810E09A
:1015900003551F4F4981040F111D642FC7010E947D
:1015A000D608602FC7010E94D608612FC7010F908F
:1015B000DF91CF911F910F91FF90EF900C94D6087F
:1015C000FC0182AD90E00895FC01A1ADB0E042AD18
:1015D000242F30E0CD01821B930B415042AF97FF87
:1015E00008C05E96A21BB30BAE0FBF1F50968C9126
:1015F0000895E80FF91F808908950E9470000E94E5
:10160000900089E892E00E945E0387E792E00C94E4
:101610001603109291020895991B79E004C0991F56
:10162000961708F0961B881F7A95C9F7809508953C
:10163000EE0FFF1F0590F491E02D0994F894FFCF71
:1016400062657374616174206E69657400534F4301
:101650004B5F55445000534F434B5F4950524157E5
:1016600000534F434B5F434C4F53455F57414954E1
:1016700000534F434B5F45535441424C49534845F7
:101680004400534F434B5F4C495354454E00534F16
:10169000434B5F494E495400534F434B5F434C4FBC
:1016A000534544004552524F52000A0D0068696587
:1016B0007221210A0D00202A2A2A0A0D00092A2A4D
:1016C0002A204465207365727665722053746174B4
:1016D0007573206973200053657276657220737488
:1016E000617274696E6721210A0D004F6E74766114
:1016F0006E67656E3A20004F6E7476616E67656E38
:101700002067726F6F7465203D2000436C69656EC1
:101710007420636F6E6E65637465640D0A00436CBC
:1017200069656E7420646973636F6E6E656374655A
:10173000640D0A006572726F720D0A004641494CD1
:101740004544210A0D003C2D20696E627566660DC8
:101750000A004552524F52204465746563746564B3
:1017600021210A0D00095352200020476C6F62208E
:101770000020736F636B20005741544348444F4728
:101780002054494D45522054494D45444F5554210C
:10179000210A0D526573746174696E6720737461F8
:1017A0007465206D616368696E650A0D4241524B34
:0217B000210016
:0400000500800197DF
:00000001FF
