:100000000C9446000C946E000C946E000C946E00E0
:100010000C946E000C946E000C946E000C946E00A8
:100020000C946E000C946E000C946E000C946E0098
:100030000C946E000C946E000C9420080C946E00CE
:100040000C946E000C946E000C946E000C946E0078
:100050000C946E000C946E000C946E000C946E0068
:100060000C946E000C946E00D201FE000301270177
:100070004101D201D201D20127022A022D0230020F
:100080003302360239023C02AB0AB30A11241FBE06
:10009000CFEFD8E0DEBFCDBF12E0A0E0B1E0E4E9F1
:1000A000F5E102C005900D92A435B107D9F712E031
:1000B000A4E5B2E001C01D92A43BB107E1F710E056
:1000C000CCE8D0E004C02297FE010E94C40AC838E0
:1000D000D107C9F70E94A70A0C94C80A0C94000023
:1000E0000F93529A569A83E792E00E9464088DE635
:1000F00092E00E944A070EED20E040E06AE08AE5C7
:1001000092E00E94FF028CE692E00E94D00349E058
:1001100050E060E070E08EE692E00F910C9456079C
:10012000CF93DF93CDB7DEB7C158D1090FB6F8949E
:10013000DEBF0FBECDBF0E941608EB961FAEEB9739
:10014000EC961FAEEC97ED961FAEED97EE961FAEB8
:10015000EE97C0906F02D0907002E0907102F09024
:10016000720280916F0290917002A0917102B09121
:10017000720240906F025090700260907102709015
:10018000720220916F023091700240917102509181
:100190007202C258DF4F288339834A835B83CE576C
:1001A000D04061E0CE018B599F4F0E942A0467E93D
:1001B00071E08EE692E00E94760701E010E092E0A6
:1001C000292E312C80916F0290917002A0917102C2
:1001D000B091720280916F0290917002A0917102B1
:1001E000B0917202A796EEADFFADA797E830F1058A
:1001F00008F0E2C0EC5CFF4F0C94C20AA7963FAE39
:100200002EAEA797DDC062E67BE1CE018B599F4FF2
:100210000E945904CE018B599F4F0E94BA05892B29
:1002200079F0CE018B599F4F0E940806892B09F463
:10023000C7C043E050E0A7965FAF4EAFA797C0C0DE
:100240006CEF71E08EE692E00E948807B5C0CE01A7
:100250008B599F4F0E94E804CE018B599F4F0E94FB
:100260005D04892B09F4ACC06BEC71E08EE692E082
:100270000E94760784E090E0A7969FAF8EAFA79785
:100280009FC0CE018B599F4F0E941205A09058022B
:10029000B0905902A816B90609F05DC0A114B104C6
:1002A00009F466C044E650E0BE016F5F7F4FCE01A7
:1002B0008B599F4F0E942E06DE0111964D01AA0E0A
:1002C000BB1E8A149B0451F05E9AD4016D914D01BE
:1002D00084E792E00E948B085E98F3CF8AE0B82E04
:1002E00084E792E00E948A0A892BD1F56091750219
:1002F0008EE692E00E949A0769E072E08EE692E054
:100300000E948807609176028EE692E00E949A072A
:1003100069E072E08EE692E00E94880760917702C1
:100320008EE692E00E949A0769E072E08EE692E023
:100330000E948807609178028EE692E00E949A07F8
:1003400063E072E08EE692E00E9488078091580296
:10035000909159020196909359028093580208C0D7
:1003600084E792E00E948E0ABA9409F0B9CFBECF1A
:10037000CE018B599F4F0E94BE04B82E882301F1F5
:100380006EED71E08EE692E00E9476076B2D8EE6B0
:1003900092E00E949A076AE671E08EE692E00E947F
:1003A00076070AC0CE018B599F4F0E948A04CE0166
:1003B0008B599F4F0E946C04A7961FAF0EAFA79753
:1003C000A7962EAD3FADA79780916F0290917002D6
:1003D000A0917102B09172028C199D09AE09BF09FA
:1003E00088399A43A105B10540F4A9968EAD9FAD19
:1003F000A9978217930709F47FC0A9963FAF2EAF44
:10040000A997C0906F02D0907002E0907102F090B6
:1004100072026DE771E08EE692E00E947607A69682
:100420006FADA6978EE692E00E949A0760E28EE694
:1004300092E00E946F075D9AA796EEADFFADA79779
:10044000E830F105E0F4E45CFF4F0C94C20A64E686
:1004500071E017C068E571E014C06EE471E011C08E
:1004600062E471E00EC061E371E00BC061E271E033
:1004700008C066E171E005C06DE071E002C060E0B7
:1004800071E08EE692E00E94760766E072E08EE60A
:1004900092E00E948807CE018B599F4F0E94DB0497
:1004A000682F8EE692E00E949A076BE072E08EE67B
:1004B00092E00E948807CE018B599F4F0E94E10471
:1004C000682F8EE692E00E949A0762E172E08EE663
:1004D00092E00E948807CE018B599F4F0E94E8044A
:1004E000682F8EE692E00E949A0766E771E08EE63A
:1004F00092E00E9476075D9880916F029091700261
:10050000A0917102B0917202C258DF4F28813981E7
:100510004A815B81CE57D040821B930BA40BB50B55
:10052000C297A105B10560F120916F023091700270
:100530004091710250917202C258DF4F2883398373
:100540004A835B83CE57D040E4E5F2E0A5E7B2E012
:1005500080819D91891710F48F5F80838081981727
:1005600010F481508083319632E0E835F30781F74B
:1005700044E0BE0166587F4F83E792E00E94450841
:1005800080916F0290917002A0917102B0917202FD
:1005900084199509A609B709843F9140A105B105C1
:1005A00060F040906F025090700260907102709005
:1005B00072028BB194E089278BB9CE018B599F4F82
:1005C0000E943205FFCDFC019AE0908311821282D5
:1005D0008BE78383148288E085838CED86838EEDA0
:1005E00087838FEA808781E08187928713861486CC
:1005F00085878FEF86878787808B118A08950F9371
:10060000FC0160834183228303830F910895FC01E1
:1006100063830895CF92EF920F93FC016483458327
:1006200026830783E086C1860F91EF90CF900895CF
:10063000FC01618708950F93FC016287438724873B
:1006400005870F9108950F93FC0166874787208BDC
:10065000018B0F910895229A0895EF92FF920F93C4
:100660001F93CF93DF9300D0CDB7DEB7162F2A9814
:1006700060EF8DE692E02A8349830E945007F82EAE
:10068000612F8DE692E00E945007082F10E00F0DB9
:10069000111D4981642F8DE692E00E945007E82EDB
:1006A000F12CE00EF11C2A81622F8DE692E00E946F
:1006B00050072A9A8E0D0F900F90DF91CF911F91C6
:1006C0000F91FF90EF9008951F93CF93DF931F92A8
:1006D000CDB7DEB7162F2A986FE08DE692E04983FA
:1006E0000E945007612F8DE692E00E9450074981D9
:1006F000642F8DE692E00E94500764E18DE692E05F
:100700000E9450072A9A0F90DF91CF911F91089570
:10071000CF92DF92EF92FF920F931F93CF93DF93CD
:100720006C017901EB01E60EF71E8A01CE15DF059B
:1007300049F0402F612FC6010E94640389930F5F27
:100740001F4FF4CF1882DF91CF911F910F91FF902F
:10075000EF90DF90CF900895CF92DF92EF92FF92CB
:100760000F931F93CF93DF936C0179018B01E40EFC
:10077000F51EEA01CE15DF0551F0F80121918F0138
:100780004C2F6D2FC6010E942D032196F3CFDF91D0
:10079000CF911F910F91FF90EF90DF90CF90089530
:1007A000EF92FF920F931F93CF93DF931F92CDB7DA
:1007B000DEB77C0120E840E060E00E942D032FEFCF
:1007C00046E160E0C7010E942D0304E612E031E03B
:1007D000F80121918F01432F60E0C70139830E9406
:1007E0002D0339813F5F353099F708E612E0F801B3
:1007F00021918F01432F60E0C70139830E942D03AF
:1008000039813F5F393099F70EE512E0F801219107
:100810008F01432F60E0C70139830E942D03398186
:100820003F5F3F3099F70AE512E0F80121918F010F
:10083000432F60E0C70139830E942D0339813F5F58
:10084000333199F70F90DF91CF911F910F91FF9066
:10085000EF900895FC01262F1182108213821282DC
:1008600040916F025091700260917102709172021A
:10087000448355836683778380E395E791878087F8
:10088000243028F484E0820F808B218B089583E646
:10089000808B8FE5818B0895FC01168620E52787E4
:1008A0000895FC01168667870895FC0166874787CF
:1008B0000895FC0167877687089543E0FC0160890D
:1008C0008CE692E00E94640321E030E0873111F071
:1008D00020E030E0C901089520E141E0FC01608999
:1008E0008CE692E00C942D03CF93DF93EC0142E071
:1008F00068898CE692E00E94640383FF06C0CE0103
:100900000E946C0481E090E002C080E090E0DF9102
:10091000CF91089528E041E0FC0160898CE692E0E7
:100920000C942D03CF93DF93EC0142E068898CE6B1
:1009300092E00E94640381FF06C0CE010E948A04F7
:1009400081E090E002C080E090E0DF91CF910895D7
:10095000CF93DF93EC0142E068898CE692E00E943D
:10096000640381FF06C0CE010E948A0481E090E00A
:1009700002C080E090E0DF91CF9108950F931F9324
:10098000CF93DF938C010E947404EC01C8010E9494
:10099000A804880F991FC80FD91FC8010E9492048C
:1009A000880F991F880F991F8C0F9D1FDF91CF9182
:1009B0001F910F91089543E060E08CE692E00C9463
:1009C000640345E1FC0160898CE692E00C946403C9
:1009D00042E0FC0160898CE692E00C9464030F9382
:1009E0001F93CF93DF931F92CDB7DEB7162F8CE600
:1009F00092E029830E946403082F2981422F612FEE
:100A00008CE692E00E946403202F30E0322F2227F0
:100A1000A901480F511DCA010F90DF91CF911F917D
:100A20000F91089527E246E2FC0160890C94EF04DF
:100A30000F931F93CF93DF93C62FD22F212F8CE6D6
:100A400092E00E942D03202F4D2F6C2F8CE692E018
:100A5000DF91CF911F910F910C942D03FC017187B1
:100A6000608708950F931F93CF93DF93EC018881E4
:100A700099819C01215031092230310560F4409167
:100A80006F025091700260917102709172024C83FA
:100A90005D836E837F832A813B818217930779F080
:100AA0009B838A8340916F02509170026091710222
:100AB000709172024C835D836E837F8335C0409159
:100AC0006F025091700260917102709172020C81FC
:100AD0001D812E813F81401B510B620B730B0885DA
:100AE000198520E030E04017510762077307E0F0F6
:100AF00069E172E08EE692E00E94880740916F0201
:100B00005091700260917102709172024C835D830A
:100B10006E837F83CE010E948A04CE010E946C0402
:100B200081E090E099838883DF91CF911F910F91AD
:100B300008950F931F93CF93DF938C01C4E6D0E009
:100B400041E0F80160898CE692E00E94640388230A
:100B500059F08FE99FE00197F1F700C0000021975D
:100B6000209771F780E001C081E0DF91CF911F9164
:100B70000F910895CF93DF93EC0120E141E0688964
:100B80008CE692E00E942D03CE010E9499058823F5
:100B900081F12FEF42E068898CE692E00E942D03FC
:100BA00021E040E068898CE692E00E942D032E85CA
:100BB00044E068898CE692E00E942D032F8545E091
:100BC00068898CE692E00E942D0321E041E068896B
:100BD0008CE692E00E942D03CE010E9499058823A5
:100BE00041F043E068898CE692E00E94640383311F
:100BF00051F020E141E068898CE692E00E942D03EB
:100C000080E090E002C081E090E0DF91CF91089514
:100C1000CF93DF93EC0122E041E068898CE692E01B
:100C20000E942D03CE010E949905882341F043E0E4
:100C300068898CE692E00E946403843151F020E1DF
:100C400041E068898CE692E00E942D0380E090E00C
:100C500002C081E090E0DF91CF910895AF92BF9202
:100C6000CF92DF92EF92FF920F931F93CF93DF9378
:100C7000EC015B017A0127E246E268890E94EF04F9
:100C80008C0129E248E26889CE01E016F106F0F411
:100C90000E94EF04080F191F29E248E26889CE017B
:100CA0000E94180520E441E068898CE692E00E94E9
:100CB0002D03CE010E949905811151C020E141E030
:100CC00068898CE692E00E942D0349C00E94EF04DF
:100CD0009770E988F12C2CE0E20EF11CFE2CEE243A
:100CE000FF0CFF0CFF0CAC014E0D5F1D9C01200F93
:100CF000311F2130384098F0C12C68E0D62EC81A38
:100D0000D90A9601B5018CE692E00E948803980109
:100D10002C193D09B5016C0D7D1DA70102C098017C
:100D2000B5018CE692E00E94880329E248E26889D6
:100D3000CE010E94EF04080F191F29E248E26889DA
:100D4000CE010E94180520E441E068898CE692E01B
:100D50000E942D03CE010E94990590E002C080E020
:100D600090E0DF91CF911F910F91FF90EF90DF9076
:100D7000CF90BF90AF900895AF92BF92CF92DF9285
:100D8000EF92FF920F931F93CF93DF93EC018B01B0
:100D9000FB016F01C01AD10A81918111FACFAAEE2D
:100DA000EA2EA3E0FA2E21E240E26889CE010E94F9
:100DB000EF0421E0E21AF108E114F10409F45DC046
:100DC000EFE8F1E03197F1F700C000008C159D05C8
:100DD00050F325E244E26889CE010E94EF04977047
:100DE000E988F12CF8E0EF0EF11CFE2CEE24FF0C4C
:100DF000FF0CFF0CAC014E0D5F1D9C012C0D3D1D29
:100E00002130384098F0A12CE8E0BE2EA81AB90A8B
:100E10009501B8018CE692E00E94AC0396012A1974
:100E20003B09B8016A0D7B1DA70102C09601B801FC
:100E30008CE692E00E94AC0325E244E26889CE0190
:100E40000E94EF048C0123E242E26889CE010E94F5
:100E500018050C0D1D1D25E244E26889CE010E9493
:100E6000180520E241E068898CE692E00E942D039B
:100E7000CE010E949905811102C080E090E0DF91CF
:100E8000CF911F910F91FF90EF90DF90CF90BF9087
:100E9000AF90089584B1886284B982E58CBD0895CD
:100EA0006EBD0DB407FEFDCF8EB508951092C5003E
:100EB00083E38093C400E0ECF0E080818D7F808349
:100EC00086E08093C20088E18093C1000895089570
:100ED0008091C00087FFFCCF8091C600089580916B
:100EE000C00085FFFCCF6093C60008950F931F9349
:100EF000CF93DF938C01EB016991662321F0C80148
:100F00000E946F07F9CFDF91CF911F910F91089544
:100F10000F931F93CF93DF938C01EB0169916623AD
:100F200021F0C8010E946F07F9CFDF91CF911F9187
:100F30000F910895CF92DF92EF92FF920F931F933C
:100F4000CF93DF9300D01F92CDB7DEB77C0119821B
:100F50001A821B824FE050E021E030E070E0CB01CC
:100F6000042E02C0959587950A94E2F7817099271F
:100F7000F901A1E0B0E0AC0FBD1FAE0FBF1F1C9187
:100F8000153010F003E001C000E0100F1C93319603
:100F9000E330F10574F3E1E0F0E0EC0FFD1FE20F48
:100FA000F31FE081E83010F021503109F901A1E090
:100FB000B0E0AC0FBD1FAE0FBF1F1C91110F1F7013
:100FC00001E01196DC90119797E0C92ECD1408F03E
:100FD00000E0102B1C933196E230F10541F79B8124
:100FE000990F9F70982B9B834150510908F0B7CF00
:100FF0008E010F5F1F4F6E01E4E0CE0ED11CF80191
:101000006081605D61938F01C7010E946F070C15BD
:101010001D05A9F70F900F900F90DF91CF911F91B1
:101020000F91FF90EF90DF90CF90089582E084BD04
:1010300093E095BD99EF97BD80936E0078940895E5
:101040001F920F920FB60F9211248F939F93AF931D
:10105000BF9380916F0290917002A0917102B09144
:1010600072020196A11DB11D80936F0290937002D0
:10107000A0937102B0937202BF91AF919F918F9133
:101080000F900FBE0F901F901895EF92FF920F9345
:101090001F93CF93DF938B015F98EB01E42EF12C2C
:1010A000CE01801B910B8E159F0534F469918DE65E
:1010B00092E00E945007F4CF5F9ADF91CF911F9189
:1010C0000F91FF90EF900895579A8DE692E00C945F
:1010D0004A07FC0110820895DC01D6969C91D697B0
:1010E000D596EC91D597F0E0E91BF109EA0FFB1FCB
:1010F00083859150D6969C930895FC0186A9089506
:10110000FC0181AD8F5F6EE10E94B60A91AF82ADA6
:101110008F5F82AF0895CF92DF92EF92FF920F938D
:101120001F93CF93DF93EC018BAD823019F178F4EC
:101130008823B1F0813009F037C16CAF8FA998AD29
:10114000860F911D98AF8FAB1DAE82E059C08430E1
:1011500009F458C008F452C0853009F456C024C1BF
:101160006A3A09F022C18AEA90E098AF8FAB81E039
:101170008BAF1CC14CAD423049F018F44423F1F15F
:1011800014C1433071F04430F9F00FC19DAD81E0DE
:10119000890F8DAFFE01E90FF11D66A7823028F59A
:1011A00026C08DAD21E0280F2DAFFE01E80FF11D07
:1011B00066A72230E0F08FA590E0019630E082171C
:1011C0009307ACF44BAF13C08DAD21E0280F2DAFCA
:1011D000FE01E80FF11D66A7222349F08EA590E0DD
:1011E000019630E08217930714F483E08BAF8FA948
:1011F00098AD860F911D98AF8FABD7C06EAF84E0CE
:101200008BAFD3C06FAF85E08BAF4EAD50E081E0C8
:1012100090E02FA938AD4217530711F080E090E01D
:101220002FAD922B892B29F41BAE87E08CAF8FEF6B
:10123000BDC08CAD823079F140F48823B9F08130A3
:1012400009F0B2C08EA58883AFC0833051F08430DE
:1012500009F0AAC0AFA54A2F50E020E030E0B5E089
:101260008BC02FA530E080E090E043C06AEACE0159
:101270000E94800863E0CE010E94800861E0CE01F8
:101280000E9480086881CE010E948008088110E0D9
:1012900002551F4F68C06AEACE010E94800863E0D1
:1012A000CE010E9480086FA5CE010E9480080FA584
:1012B00010E003551F4FE12CF12C8FA590E0E816AC
:1012C000F90608F050C08EA56E01CE0CDF1CF601A9
:1012D000E80FF11D6181CE010E9480088EA5F60104
:1012E000E80FF11D8181080F111D8FEFE81AF80A30
:1012F000E4CF8217930750F4FE01E80FF91F40A9CD
:101300005EA5E50FF11D41830196F3CF6AEACE0198
:101310000E94800863E0CE010E9480086FA5CE0184
:101320000E9480080FA510E003551F4FE12CF12CFF
:101330008FA590E0E816F906B0F48EA56E01CE0CEC
:10134000DF1CF601E80FF11D6181CE010E948008CB
:101350008EA5F601E80FF11D8181080F111D8FEF99
:10136000E81AF80AE5CF602FCE010E948008612FAD
:10137000CE010E94800818C08DA92417350790F46B
:1013800091E0980F9DABFE01E20FF31F90A9E80FCB
:10139000F11D93878EA96B2F0E94B60A9EAB2F5F1B
:1013A0003F4FEACF8A0F8DAB1BAE81E0DF91CF912B
:1013B0001F910F91FF90EF90DF90CF9008951F93B2
:1013C000CF93DF93EC01162F6AEA0E94800866E053
:1013D000CE010E948008112331F061E0CE010E940D
:1013E000800861EB05C060E0CE010E94800860EBE0
:1013F000CE010E94800860E0CE01DF91CF911F9165
:101400000C9480088F929F92AF92BF92CF92DF92FE
:10141000EF92FF920F931F93CF93DF9300D0CDB73E
:10142000DEB74C01162F69016AEA49835A830E948C
:10143000800862E0C4010E948008612FC4010E94FC
:1014400080086C2DC4010E94800876018CEAE80EA9
:10145000F11CE10EF11C4981042F5A81152FC00E99
:10146000D11E0C151D0561F05801F80161918F0125
:10147000C4010E948008F5018081E80EF11CF1CFC3
:101480006E2DC4010E9480086F2DC4010F900F9033
:10149000DF91CF911F910F91FF90EF90DF90CF9050
:1014A000BF90AF909F908F900C948008EF92FF9226
:1014B0000F931F93CF93DF931F92CDB7DEB77C01BD
:1014C000062F6AEA49830E94800862E0C7010E94F1
:1014D0008008602FC7010E94800861E0C7010E9458
:1014E000800810E003551F4F4981040F111D642F20
:1014F000C7010E948008602FC7010E948008612FE9
:10150000C7010F90DF91CF911F910F91FF90EF9046
:101510000C948008FC0182AD90E00895FC01A1AD1F
:10152000B0E042AD242F30E0CD01821B930B41503F
:1015300042AF97FF08C05E96A21BB30BAE0FBF1F52
:1015400050968C910895E80FF91F808908950E94A4
:1015500070000E9490008CE692E00E942B038AE5C6
:1015600092E00C94E302109274020895991B79E0C2
:1015700004C0991F961708F0961B881F7A95C9F723
:1015800080950895EE0FFF1F0590F491E02D0994CA
:04159000F894FFCFFD
:1015940062657374616174206E69657400534F43AE
:1015A4004B5F55445000534F434B5F495052415792
:1015B40000534F434B5F434C4F53455F574149548E
:1015C40000534F434B5F45535441424C49534845A4
:1015D4004400534F434B5F4C495354454E00534FC3
:1015E400434B5F494E495400534F434B5F434C4F69
:1015F400534544004552524F52000A0D0068696534
:101604007221210A0D00202A2A2A0A0D00092A2AF9
:101614002A20446520736572766572205374617460
:101624007573206973200053657276657220737434
:10163400617274696E6721210A0D004F6E747661C0
:101644006E67656E3A20004F6E7476616E67656EE4
:101654002067726F6F7465203D2000436C69656E6E
:101664007420636F6E6E65637465640D0A00436C69
:1016740069656E7420646973636F6E6E6563746507
:10168400640D0A006572726F720D0A004641494C7E
:101694004544210A0D00095352200020476C6F6213
:1016A400200020736F636B20005741544348444F1C
:1016B400472054494D45522054494D45444F5554B3
:1016C40021210A0D526573746174696E6720737405
:1016D400617465206D616368696E650A0D424152EB
:0416E4004B21000096
:0400000500800197DF
:00000001FF
