:100000000C943D000C9465000C9465000C94650004
:100010000C9465000C9465000C9465000C946500CC
:100020000C9465000C9465000C9465000C946500BC
:100030000C9465000C9465000C94A0070C9465006A
:100040000C9465000C9465000C9465000C9465009C
:100050000C9465000C9465000C9465000C9465008C
:100060000C9465000C946500F401F701FA01FD01A0
:100070000002030206020902C90711241FBECFEFC6
:10008000D8E0DEBFCDBF12E0A0E0B1E0EAEAFFE0D9
:1000900002C005900D92AA34B107D9F712E0AAE484
:1000A000B2E001C01D92A536B107E1F710E0CAE742
:1000B000D0E004C02297FE010E94CF07C837D107C5
:1000C000C9F70E94C5070C94D3070C9400000F9346
:1000D000529A8FE592E00E94C5060EED20E040E0C6
:1000E0006AE08CE492E00E9493028EE592E00E9426
:1000F0005D0349E050E060E070E080E692E00F913F
:100100000C94D606CF93DF93CDB7DEB7CD57D10988
:100110000FB6F894DEBF0FBECDBF0E949607C09009
:100120006102D0906202E0906302F090640240901D
:1001300061025090620260906302709064022091AC
:100140006102309162024091630250916402EE9626
:100150002CAF3DAF4EAF5FAFEE9761E0CE018B5954
:100160009F4F0E94B70367E971E080E692E00E942A
:10017000F60601E010E084E0282E312C92E0892E72
:10018000912C8091610290916202A0916302B091E2
:10019000640284159505A605B70509F4DFC04090F3
:1001A0006102509062026090630270906402A796B0
:1001B0008EAD9FADA7978230910579F044F40197F9
:1001C00009F0C8C0A7969FAE8EAEA797C7C0833070
:1001D000910509F1049791F1BDC062E67BE1CE0182
:1001E0008B599F4F0E94E603CE018B599F4F0E946F
:1001F000EA03892B09F4AEC0CE018B599F4F0E94B0
:100200003E04892B09F4AAC043E050E0A7965FAFF3
:100210004EAFA797A3C0CE018B599F4F0E94670492
:10022000892B09F49BC06BEC71E080E692E00E94A0
:10023000F606A7963FAE2EAEA79790C0CE018B597B
:100240009F4F0E941C05A0904A02B0904B02A81636
:10025000B90609F062C0A114B10409F462C067EBE9
:1002600071E080E692E00E94F6066A2D80E692E058
:100270000E941A076AE671E080E692E00E94F606A4
:1002800044E650E0BE016F5F7F4FCE018B599F4F18
:100290000E943805892BC9F06BEA71E0CE018B59B9
:1002A0009F4F0E94C905BE016F5F7F4FCE018B59E2
:1002B0009F4F0E94C9056BEA71E080E692E00E94C0
:1002C000F606BE016F5F7F4F09C064EF71E0CE019B
:1002D0008B599F4F0E94C90564EF71E080E692E060
:1002E0000E94F6068981833799F48A81843781F4E4
:1002F0008B818F3669F48C81803751F4CE018B5914
:100300009F4F0E949404A7961FAF0EAFA79709C0F6
:1003100080914A0290914B02019690934B028093F8
:100320004A02CE018B599F4F0E94C804B82E8823E1
:10033000A9F06EED71E080E692E00E94F6066B2D6A
:1003400080E692E00E941A076AE671E080E692E099
:100350000E94F606A7961FAF0EAFA797A7962EADE1
:100360003FADA7978091610290916202A0916302D4
:10037000B09164028C199D09AE09BF098838934178
:10038000A105B10540F4A9968EAD9FADA99782173E
:10039000930709F47DC0A9963FAF2EAFA997C090EF
:1003A0006102D0906202E0906302F09064026DE717
:1003B00071E080E692E00E94F606A6966FADA697E1
:1003C00080E692E00E941A0760E280E692E00E94D6
:1003D000EF06A796EEADFFADA797E830F105E0F484
:1003E000EC5CFF4F0C94CD0764E671E017C068E544
:1003F00071E014C06EE471E011C062E471E00EC0FF
:1004000061E371E00BC061E271E008C066E171E098
:1004100005C06DE071E002C060E071E080E692E04E
:100420000E94F6066CEF71E080E692E00E940807F9
:10043000CE018B599F4F0E94E504682F80E692E021
:100440000E941A0761E072E080E692E00E940807CD
:10045000CE018B599F4F0E94EB04682F80E692E0FB
:100460000E941A0768E072E080E692E00E940807A6
:10047000CE018B599F4F0E94F204682F80E692E0D4
:100480000E941A0766E771E080E692E00E94F60695
:100490008091610290916202A0916302B091640226
:1004A000EE962CAD3DAD4EAD5FADEE97821B930B3E
:1004B000A40BB50B843F9140A105B10590F02091AC
:1004C0006102309162024091630250916402EE96A3
:1004D0002CAF3DAF4EAF5FAFEE978BB134E08327CB
:1004E0008BB9CE018B599F4F0E945E064ACEFC010C
:1004F0009AE09083118212828BE78383148288E0D2
:1005000085838CED86838EED87838FEA808781E0FB
:10051000818792871386148685878FEF86878787E2
:10052000808B118A08950F93FC016083418322839D
:1005300003830F910895FC0163830895CF92EF9296
:100540000F93FC016483458326830783E086C1867D
:100550000F91EF90CF900895FC01618708950F935C
:10056000FC0162874387248705870F9108950F93C5
:10057000FC0166874787208B018B0F910895EF92CE
:10058000FF920F931F93CF93DF9300D0CDB7DEB7C9
:10059000162F60EF8FE592E02A8349830E94CE06F2
:1005A000F82E612F8FE592E00E94CE06082F10E012
:1005B0000F0D111D4981642F8FE592E00E94CE0638
:1005C000E82EF12CE00EF11C2A81622F8FE592E0DB
:1005D0000E94CE068E0D0F900F90DF91CF911F914C
:1005E0000F91FF90EF9008951F93CF93DF931F9289
:1005F000CDB7DEB7162F6FE08FE592E049830E94FA
:10060000CE06612F8FE592E00E94CE064981642FCD
:100610008FE592E00E94CE0660E08FE592E00F90B9
:10062000DF91CF911F910C94CE06CF92DF92EF9283
:10063000FF920F931F93CF93DF936C017901EB012E
:10064000E60EF71E8A01CE15DF0549F0402F612F17
:10065000C6010E94F40289930F5F1F4FF4CF1882E6
:10066000DF91CF911F910F91FF90EF90DF90CF908E
:100670000895CF92DF92EF92FF920F931F93CF9343
:10068000DF936C0179018B01E40EF51EEA01CE15B2
:10069000DF0551F0F80121918F014C2F6D2FC6011C
:1006A0000E94BF022196F3CFDF91CF911F910F914E
:1006B000FF90EF90DF90CF900895EF92FF920F930D
:1006C0001F93CF93DF931F92CDB7DEB77C0120E855
:1006D00040E060E00E94BF022FEF46E160E0C7010A
:1006E0000E94BF0206E512E031E0F80121918F017E
:1006F000432F60E0C70139830E94BF0239813F5F09
:10070000353099F70AE512E0F80121918F01432F66
:1007100060E0C70139830E94BF0239813F5F3930F1
:1007200099F700E512E0F80121918F01432F60E075
:10073000C70139830E94BF0239813F5F3F3099F77B
:100740000CE412E0F80121918F01432F60E0C70112
:1007500039830E94BF0239813F5F333199F70F908F
:10076000DF91CF911F910F91FF90EF900895FC01C1
:10077000262F1182108213821282409161025091C1
:1007800062026091630270916402448355836683C0
:10079000778380E395E791878087243028F484E08D
:1007A000820F808B218B089583E6808B8FE5818B70
:1007B0000895FC01168620E527870895FC0116861A
:1007C00067870895FC01668747870895FC0167875E
:1007D00076870895CF93DF93EC0120E141E06889AB
:1007E0008EE592E00E94BF0241E068898EE592E0CA
:1007F0000E94F4028111F8CF2FEF42E068898EE564
:1008000092E00E94BF0221E040E068898EE592E01C
:100810000E94BF022E8544E068898EE592E00E9426
:10082000BF022F8545E068898EE592E00E94BF02F5
:1008300021E041E068898EE592E00E94BF0241E03C
:1008400068898EE592E00E94F4028111F8CF43E0BE
:1008500068898EE592E00E94F402833151F020E134
:1008600041E068898EE592E00E94BF0280E090E05E
:1008700002C081E090E0DF91CF910895CF93DF93A4
:10088000EC0122E041E068898EE592E00E94BF021F
:1008900041E068898EE592E00E94F4028111F8CF70
:1008A00043E068898EE592E00E94F402843151F0C1
:1008B00020E141E068898EE592E00E94BF0280E07D
:1008C00090E002C081E090E0DF91CF91089543E095
:1008D000FC0160898EE592E00E94F40221E030E0A4
:1008E000873111F020E030E0C901089520E141E0B6
:1008F000FC0160898EE592E00C94BF02CF93DF93F8
:10090000EC0142E068898EE592E00E94F40283FFE8
:1009100006C0CE010E94760481E090E002C080E033
:1009200090E0DF91CF91089528E041E0FC016089DB
:100930008EE592E00C94BF02CF93DF93EC0142E08E
:1009400068898EE592E00E94F40281FF06C0CE0124
:100950000E94940481E090E002C080E090E0DF918A
:10096000CF910895CF93DF93EC0142E068898EE543
:1009700092E00E94F40281FF06C0CE010E9494041E
:1009800081E090E002C080E090E0DF91CF91089597
:100990000F931F93CF93DF938C010E947E04EC0191
:1009A000C8010E94B204880F991FC80FD91FC8013F
:1009B0000E949C04880F991F880F991F8C0F9D1F00
:1009C000DF91CF911F910F91089543E060E08EE594
:1009D00092E00C94F40245E1FC0160898EE592E01E
:1009E0000C94F40242E0FC0160898EE592E00C94E4
:1009F000F4020F931F93CF93DF931F92CDB7DEB70F
:100A0000162F8EE592E029830E94F402082F298197
:100A1000422F612F8EE592E00E94F402202F30E0F9
:100A2000322F2227A901480F511DCA010F90DF91D3
:100A3000CF911F910F91089527E246E2FC01608952
:100A40000C94F9040F931F93CF93DF93C62FD22FEB
:100A5000212F8EE592E00E94BF02202F4D2F6C2F98
:100A60008EE592E0DF91CF911F910F910C94BF0220
:100A7000AF92BF92CF92DF92EF92FF920F931F93AC
:100A8000CF93DF93EC015B017A0127E246E26889AC
:100A90000E94F9048C0129E248E26889CE01E0163F
:100AA000F106D0F40E94F904080F191F29E248E268
:100AB0006889CE010E94220520E441E068898EE524
:100AC00092E00E94BF0241E068898EE592E00E94B8
:100AD000F4028111F8CF4DC00E94F9049770E988A3
:100AE000F12C2CE0E20EF11CFE2CEE24FF0CFF0C8E
:100AF000FF0CAC014E0D5F1D9C01200F311F2130FA
:100B0000384098F0C12C68E0D62EC81AD90A960150
:100B1000B5018EE592E00E94150398012C193D095C
:100B2000B5016C0D7D1DA70102C09801B5018EE5D0
:100B300092E00E94150329E248E26889CE010E94F2
:100B4000F904080F191F29E248E26889CE010E94C2
:100B5000220520E441E068898EE592E00E94BF0210
:100B600041E068898EE592E00E94F4028111F8CF9D
:100B700003C080E090E002C081E090E0DF91CF917F
:100B80001F910F91FF90EF90DF90CF90BF90AF90AB
:100B90000895AF92BF92CF92DF92EF92FF920F93A0
:100BA0001F93CF93DF93EC018B01FB016F01C01A00
:100BB000D10A81918111FACFAAEEEA2EA3E0FA2E92
:100BC00021E240E26889CE010E94F90421E0E21AA4
:100BD000F108E114F10419F480E090E060C0EFE85E
:100BE000F1E03197F1F700C000008C159D0540F34E
:100BF00025E244E26889CE010E94F9049770E988F1
:100C0000F12CF8E0EF0EF11CFE2CEE24FF0CFF0C93
:100C1000FF0CAC014E0D5F1D9C012C0D3D1D2130C4
:100C2000384098F0A12CE8E0BE2EA81AB90A950128
:100C3000B8018EE592E00E94390396012A193B091A
:100C4000B8016A0D7B1DA70102C09601B8018EE5AF
:100C500092E00E94390325E244E26889CE010E94B5
:100C6000F9048C0123E242E26889CE010E94220548
:100C70000C0D1D1D25E244E26889CE010E9422056B
:100C800020E241E068898EE592E00E94BF0241E0E7
:100C900068898EE592E00E94F4028111F8CFDF911D
:100CA000CF911F910F91FF90EF90DF90CF90BF9069
:100CB000AF900895FC017187608708950F931F938B
:100CC000CF93DF93EC01888199819C0121503109F8
:100CD0002230310560F440916102509162026091CE
:100CE0006302709164024C835D836E837F832A81EB
:100CF0003B818217930779F09B838A83409161023D
:100D00005091620260916302709164024C835D8332
:100D10006E837F8335C04091610250916202609181
:100D20006302709164020C811D812E813F81401B02
:100D3000510B620B730B0885198520E030E04017DA
:100D4000510762077307E0F06FE072E080E692E01F
:100D50000E94080740916102509162026091630213
:100D6000709164024C835D836E837F83CE010E9409
:100D70009404CE010E94760481E090E099838883F8
:100D8000DF91CF911F910F9108952A9A8CE284B937
:100D900080E58CBD8DB581608DBD08952A986EBDAE
:100DA0000DB407FEFDCF2A9A8EB508951092C500A6
:100DB00083E38093C400E0ECF0E080818D7F80834A
:100DC00086E08093C20088E18093C1000895089571
:100DD0008091C00087FFFCCF8091C600089580916C
:100DE000C00085FFFCCF6093C60008950F931F934A
:100DF000CF93DF938C01EB016991662321F0C80149
:100E00000E94EF06F9CFDF91CF911F910F910895C6
:100E10000F931F93CF93DF938C01EB0169916623AE
:100E200021F0C8010E94EF06F9CFDF91CF911F9109
:100E30000F910895CF92DF92EF92FF920F931F933D
:100E4000CF93DF9300D01F92CDB7DEB77C0119821C
:100E50001A821B824FE050E021E030E070E0CB01CD
:100E6000042E02C0959587950A94E2F78170992720
:100E7000F901A1E0B0E0AC0FBD1FAE0FBF1F1C9188
:100E8000153010F003E001C000E0100F1C93319604
:100E9000E330F10574F3E1E0F0E0EC0FFD1FE20F49
:100EA000F31FE081E83010F021503109F901A1E091
:100EB000B0E0AC0FBD1FAE0FBF1F1C91110F1F7014
:100EC00001E01196DC90119797E0C92ECD1408F03F
:100ED00000E0102B1C933196E230F10541F79B8125
:100EE000990F9F70982B9B834150510908F0B7CF01
:100EF0008E010F5F1F4F6E01E4E0CE0ED11CF80192
:100F00006081605D61938F01C7010E94EF060C153F
:100F10001D05A9F70F900F900F90DF91CF911F91B2
:100F20000F91FF90EF90DF90CF90089582E084BD05
:100F300093E095BD99EF97BD80936E0078940895E6
:100F40001F920F920FB60F9211248F939F93AF931E
:100F5000BF938091610290916202A0916302B0916F
:100F600064020196A11DB11D8093610290936202FB
:100F7000A0936302B0936402BF91AF919F918F9150
:100F80000F900FBE0F901F9018950E9467000E944F
:100F900082008CE492E00C947702EE0FFF1F059024
:0A0FA000F491E02D0994F894FFCFBE
:100FAA0062657374616174206E69657400534F439E
:100FBA004B5F55445000534F434B5F495052415782
:100FCA0000534F434B5F434C4F53455F574149547E
:100FDA0000534F434B5F45535441424C4953484594
:100FEA004400534F434B5F4C495354454E00534FB3
:100FFA00434B5F494E495400534F434B5F434C4F59
:10100A00534544004552524F52000A0D0068696523
:10101A007221210A0D00202A2A2A0A0D00092A2AE9
:10102A002A20446520736572766572205374617450
:10103A007573206973200053657276657220737424
:10104A00617274696E6721210A0D004F6E747661B0
:10105A006E67656E3A20004F6E7476616E67656ED4
:10106A002067726F6F7465203D2000436C69656E5E
:10107A007420636F6E6E65637465640D0A00436C59
:10108A0069656E7420646973636F6E6E65637465F7
:10109A00640D0A006572726F720D0A0009535220BC
:1010AA000020476C6F62200020736F636B2000572B
:1010BA0041544348444F472054494D4552205449CE
:1010CA004D45444F555421210A0D5265737461747C
:1010DA00696E67207374617465206D616368696EF7
:0A10EA00650A0D4241524B2100003F
:0400000500800197DF
:00000001FF
