:100000000C943D000C9465000C9465000C94650004
:100010000C9465000C9465000C9465000C946500CC
:100020000C9465000C9465000C9465000C946500BC
:100030000C9465000C9465000C9403080C94650006
:100040000C9465000C9465000C9465000C9465009C
:100050000C9465000C9465000C9465000C9465008C
:100060000C9465000C9465001F02220225022802F0
:100070002B022E0231023402500811241FBECFEF92
:10008000D8E0DEBFCDBF12E0A0E0B1E0E0ECF0E1EF
:1000900002C005900D92A435B107D9F712E0A4E58E
:1000A000B2E001C01D92A037B107E1F710E0CAE746
:1000B000D0E004C02297FE010E945A08C837D10739
:1000C000C9F70E944C080C945E080C9400000F9332
:1000D000529A8FE692E00E94470889E692E00E94D9
:1000E0002A070EED20E040E06AE086E592E00E94FB
:1000F000F10288E692E00E94C20349E050E060E02D
:1001000070E08AE692E00F910C943907CF93DF9369
:10011000CDB7DEB7C358D1090FB6F894DEBF0FBE16
:10012000CDBF0E94F907EB961FAEEB97EC961FAE82
:10013000EC97ED961FAEED97EE961FAEEE97C09042
:100140006B02D0906C02E0906D02F0906E02809095
:100150006B0290906C02A0906D02B0906E02409085
:100160006B0250906C0260906D0270906E02209154
:100170006B0230916C0240916D0250916E02C25838
:10018000DF4F288339834A835B83CE57D04061E0B9
:10019000CE018B599F4F0E941C0467E971E08AE6EB
:1001A00092E00E94590722242394312C2AE730E060
:1001B0002C0F3D1F2C5F3F4FCE57DF4F39832883D5
:1001C000C258D04080916B0290916C02A0916D0258
:1001D000B0916E0288159905AA05BB0509F4E9C01E
:1001E00080906B0290906C02A0906D02B0906E02B5
:1001F000A7968EAD9FADA7978230910589F054F4F4
:10020000019709F0D2C042E050E0A7965FAF4EAF31
:10021000A797CFC08330910539F10497D1F1C5C0BC
:1002200062E67BE1CE018B599F4F0E944B04CE01C9
:100230008B599F4F0E944F04892B79F0CE018B5927
:100240009F4F0E94A304892B09F4B3C083E090E080
:10025000A7969FAF8EAFA797ACC06CEF71E08AE610
:1002600092E00E946B07A1C0CE018B599F4F0E9464
:10027000CC04892B09F49DC06BEC71E08AE692E016
:100280000E945907A4E0B0E0A796BFAFAEAFA79712
:1002900090C0CE018B599F4F0E948105009154025E
:1002A000109155020817190709F062C001151105D0
:1002B00009F462C067EB71E08AE692E00E94590798
:1002C000602F8AE692E00E947D076AE671E08AE686
:1002D00092E00E94590744E650E0BE016F5F7F4FF5
:1002E000CE018B599F4F0E949D05892BC9F06BEA67
:1002F00071E0CE018B599F4F0E942E06BE016F5FA9
:100300007F4FCE018B599F4F0E942E066BEA71E002
:100310008AE692E00E945907BE016F5F7F4F09C0D5
:1003200064EF71E0CE018B599F4F0E942E0664EF5F
:1003300071E08AE692E00E9459078981833799F437
:100340008A81843781F48B818F3669F48C81803780
:1003500051F4CE018B599F4F0E94F904A7963FAEEE
:100360002EAEA79709C08091540290915502019634
:100370009093550280935402CE018B599F4F0E9457
:100380002D05182F8823A9F06EED71E08AE692E022
:100390000E945907612F8AE692E00E947D076AE673
:1003A00071E08AE692E00E945907A7963FAE2EAE12
:1003B000A797A7962EAD3FADA79780916B0290911E
:1003C0006C02A0916D02B0916E028C199D09AE096C
:1003D000BF0988389341A105B10540F4A9968EADB7
:1003E0009FADA9978217930709F47DC0A9963FAFE7
:1003F0002EAFA997C0906B02D0906C02E0906D0276
:10040000F0906E026DE771E08AE692E00E94590773
:10041000A6966FADA6978AE692E00E947D0760E2FD
:100420008AE692E00E945207A796EEADFFADA7972D
:10043000E830F105E0F4EC5CFF4F0C94580864E6FA
:1004400071E017C068E571E014C06EE471E011C09E
:1004500062E471E00EC061E371E00BC061E271E043
:1004600008C066E171E005C06DE071E002C060E0C7
:1004700071E08AE692E00E94590766E072E08AE63F
:1004800092E00E946B07CE018B599F4F0E944A0554
:10049000682F8AE692E00E947D076BE072E08AE6B0
:1004A00092E00E946B07CE018B599F4F0E9450052E
:1004B000682F8AE692E00E947D0762E172E08AE698
:1004C00092E00E946B07CE018B599F4F0E94570507
:1004D000682F8AE692E00E947D0766E771E08AE66F
:1004E00092E00E94590780916B0290916C02A0915A
:1004F0006D02B0916E02C258DF4F288139814A8166
:100500005B81CE57D040821B930BA40BB50B0A978F
:10051000A105B10538F120916B0230916C02409138
:100520006D0250916E02C258DF4F288339834A838F
:100530005B83CE57D040FE01E658FF4F80818F5F2E
:100540008193CE57DF4F28813981C258D040E217BE
:10055000F307A1F744E0BE0166587F4F8FE692E0B3
:100560000E94280880916B0290916C02A0916D020C
:10057000B0916E0284199509A609B709843F91408C
:10058000A105B10560F040906B0250906C02609044
:100590006D0270906E028BB194E089278BB9CE0109
:1005A0008B599F4F0E94C3060DCEFC019AE09083A9
:1005B000118212828BE78383148288E085838CED1D
:1005C00086838EED87838FEA808781E0818792879B
:1005D0001386148685878FEF86878787808B118A9D
:1005E00008950F93FC0160834183228303830F915D
:1005F0000895FC0163830895CF92EF920F93FC015D
:100600006483458326830783E086C1860F91EF903C
:10061000CF900895FC01618708950F93FC016287D4
:100620004387248705870F9108950F93FC01668700
:100630004787208B018B0F910895229A0895EF929E
:10064000FF920F931F93CF93DF9300D0CDB7DEB708
:10065000162F2A9860EF89E692E02A8349830E9448
:100660003307F82E612F89E692E00E943307082FA6
:1006700010E00F0D111D4981642F89E692E00E9460
:100680003307E82EF12CE00EF11C2A81622F89E657
:1006900092E00E9433072A9A8E0D0F900F90DF91FF
:1006A000CF911F910F91FF90EF9008951F93CF93DB
:1006B000DF931F92CDB7DEB7162F2A986FE089E639
:1006C00092E049830E943307612F89E692E00E94FD
:1006D00033074981642F89E692E00E94330764E181
:1006E00089E692E00E9433072A9A0F90DF91CF911A
:1006F0001F910895CF92DF92EF92FF920F931F9375
:10070000CF93DF936C017901EB01E60EF71E8A01AE
:10071000CE15DF0549F0402F612FC6010E94560318
:1007200089930F5F1F4FF4CF1882DF91CF911F91F4
:100730000F91FF90EF90DF90CF900895CF92DF92CE
:10074000EF92FF920F931F93CF93DF936C01790188
:100750008B01E40EF51EEA01CE15DF0551F0F8011C
:1007600021918F014C2F6D2FC6010E941F032196EE
:10077000F3CFDF91CF911F910F91FF90EF90DF901A
:10078000CF900895EF92FF920F931F93CF93DF9333
:100790001F92CDB7DEB77C0120E840E060E00E9408
:1007A0001F032FEF46E160E0C7010E941F0300E630
:1007B00012E031E0F80121918F01432F60E0C70181
:1007C00039830E941F0339813F5F353099F704E672
:1007D00012E0F80121918F01432F60E0C7013983B6
:1007E0000E941F0339813F5F393099F70AE512E013
:1007F000F80121918F01432F60E0C70139830E94E6
:100800001F0339813F5F3F3099F706E512E0F80199
:1008100021918F01432F60E0C70139830E941F039C
:1008200039813F5F333199F70F90DF91CF911F915D
:100830000F91FF90EF900895FC01262F11821082F6
:100840001382128240916B0250916C0260916D0292
:1008500070916E02448355836683778380E395E7C6
:1008600091878087243028F484E0820F808B218B4D
:10087000089583E6808B8FE5818B0895FC011686B1
:1008800020E527870895FC01168667870895FC01F7
:10089000668747870895FC01678776870895CF9319
:1008A000DF93EC0120E141E0688988E692E00E9454
:1008B0001F0341E0688988E692E00E945603811197
:1008C000F8CF2FEF42E0688988E692E00E941F038C
:1008D00021E040E0688988E692E00E941F032E85AF
:1008E00044E0688988E692E00E941F032F8545E076
:1008F000688988E692E00E941F0321E041E0688950
:1009000088E692E00E941F0341E0688988E692E051
:100910000E9456038111F8CF43E0688988E692E08F
:100920000E945603833151F020E141E0688988E656
:1009300092E00E941F0380E090E002C081E090E01E
:10094000DF91CF910895CF93DF93EC0122E041E056
:10095000688988E692E00E941F0341E0688988E682
:1009600092E00E9456038111F8CF43E0688988E63F
:1009700092E00E945603843151F020E141E0688901
:1009800088E692E00E941F0380E090E002C081E0D0
:1009900090E0DF91CF91089543E0FC01608988E603
:1009A00092E00E94560321E030E0873111F020E010
:1009B00030E0C901089520E141E0FC01608988E64A
:1009C00092E00C941F03CF93DF93EC0142E068891F
:1009D00088E692E00E94560383FF06C0CE010E9483
:1009E000DB0481E090E002C080E090E0DF91CF91F5
:1009F000089528E041E0FC01608988E692E00C94CB
:100A00001F03CF93DF93EC0142E0688988E692E010
:100A10000E94560381FF06C0CE010E94F90481E0C6
:100A200090E002C080E090E0DF91CF910895CF93F5
:100A3000DF93EC0142E0688988E692E00E94560369
:100A400081FF06C0CE010E94F90481E090E002C05F
:100A500080E090E0DF91CF9108950F931F93CF93A3
:100A6000DF938C010E94E304EC01C8010E9417058A
:100A7000880F991FC80FD91FC8010E940105880F50
:100A8000991F880F991F8C0F9D1FDF91CF911F9188
:100A90000F91089543E060E088E692E00C945603DD
:100AA00045E1FC01608988E692E00C94560342E03F
:100AB000FC01608988E692E00C9456030F931F9323
:100AC000CF93DF931F92CDB7DEB7162F88E692E063
:100AD00029830E945603082F2981422F612F88E61F
:100AE00092E00E945603202F30E0322F2227A901E6
:100AF000480F511DCA010F90DF91CF911F910F91A7
:100B0000089527E246E2FC0160890C945E050F938C
:100B10001F93CF93DF93C62FD22F212F88E692E029
:100B20000E941F03202F4D2F6C2F88E692E0DF914B
:100B3000CF911F910F910C941F03AF92BF92CF9250
:100B4000DF92EF92FF920F931F93CF93DF93EC010D
:100B50005B017A0127E246E268890E945E058C010A
:100B600029E248E26889CE01E016F106D0F40E943D
:100B70005E05080F191F29E248E26889CE010E942C
:100B8000870520E441E0688988E692E00E941F031F
:100B900041E0688988E692E00E9456038111F8CF0F
:100BA0004DC00E945E059770E988F12C2CE0E20EA2
:100BB000F11CFE2CEE24FF0CFF0CFF0CAC014E0DC3
:100BC0005F1D9C01200F311F2130384098F0C12C4F
:100BD00068E0D62EC81AD90A9601B50188E692E0D7
:100BE0000E947A0398012C193D09B5016C0D7D1DF9
:100BF000A70102C09801B50188E692E00E947A033D
:100C000029E248E26889CE010E945E05080F191F9B
:100C100029E248E26889CE010E94870520E441E08C
:100C2000688988E692E00E941F0341E0688988E6AF
:100C300092E00E9456038111F8CF03C080E090E05B
:100C400002C081E090E0DF91CF911F910F91FF9062
:100C5000EF90DF90CF90BF90AF900895AF92BF928A
:100C6000CF92DF92EF92FF920F931F93CF93DF9378
:100C7000EC018B01FB016F01C01AD10A8191811136
:100C8000FACFAAEEEA2EA3E0FA2E21E240E268892A
:100C9000CE010E945E0521E0E21AF108E114F104A0
:100CA00019F480E090E060C0EFE8F1E03197F1F7EF
:100CB00000C000008C159D0540F325E244E26889E0
:100CC000CE010E945E059770E988F12CF8E0EF0EE6
:100CD000F11CFE2CEE24FF0CFF0CFF0CAC014E0DA2
:100CE0005F1D9C012C0D3D1D2130384098F0A12C3A
:100CF000E8E0BE2EA81AB90A9501B80188E692E08C
:100D00000E949E0396012A193B09B8016A0D7B1DBA
:100D1000A70102C09601B80188E692E00E949E03F6
:100D200025E244E26889CE010E945E058C0123E23F
:100D300042E26889CE010E9487050C0D1D1D25E247
:100D400044E26889CE010E94870520E241E068897B
:100D500088E692E00E941F0341E0688988E692E0FD
:100D60000E9456038111F8CFDF91CF911F910F910F
:100D7000FF90EF90DF90CF90BF90AF900895FC016F
:100D80007187608708950F931F93CF93DF93EC01D2
:100D9000888199819C01215031092230310560F40C
:100DA00040916B0250916C0260916D0270916E02E5
:100DB0004C835D836E837F832A813B8182179307F7
:100DC00079F09B838A8340916B0250916C02609111
:100DD0006D0270916E024C835D836E837F8335C09C
:100DE00040916B0250916C0260916D0270916E02A5
:100DF0000C811D812E813F81401B510B620B730BB7
:100E00000885198520E030E0401751076207730715
:100E1000E0F069E172E08AE692E00E946B0740919F
:100E20006B0250916C0260916D0270916E024C8366
:100E30005D836E837F83CE010E94F904CE010E9400
:100E4000DB0481E090E099838883DF91CF911F914B
:100E50000F91089584B1886284B980E58CBD8DB509
:100E600081608DBD08956EBD0DB407FEFDCF8EB5BA
:100E700008951092C50083E38093C400E0ECF0E095
:100E800080818D7F808386E08093C20088E180939B
:100E9000C100089508958091C00087FFFCCF809124
:100EA000C60008958091C00085FFFCCF6093C60006
:100EB00008950F931F93CF93DF938C01EB016991FA
:100EC000662321F0C8010E945207F9CFDF91CF912C
:100ED0001F910F9108950F931F93CF93DF938C0170
:100EE000EB016991662321F0C8010E945207F9CFF6
:100EF000DF91CF911F910F910895CF92DF92EF92E2
:100F0000FF920F931F93CF93DF9300D01F92CDB723
:100F1000DEB77C0119821A821B824FE050E021E08B
:100F200030E070E0CB01042E02C0959587950A94BD
:100F3000E2F781709927F901A1E0B0E0AC0FBD1F85
:100F4000AE0FBF1F1C91153010F003E001C000E090
:100F5000100F1C933196E330F10574F3E1E0F0E0FB
:100F6000EC0FFD1FE20FF31FE081E83010F021507D
:100F70003109F901A1E0B0E0AC0FBD1FAE0FBF1FFA
:100F80001C91110F1F7001E01196DC90119797E0F2
:100F9000C92ECD1408F000E0102B1C933196E230DE
:100FA000F10541F79B81990F9F70982B9B834150CE
:100FB000510908F0B7CF8E010F5F1F4F6E01E4E0BB
:100FC000CE0ED11CF8016081605D61938F01C70175
:100FD0000E9452070C151D05A9F70F900F900F9056
:100FE000DF91CF911F910F91FF90EF90DF90CF9005
:100FF000089582E084BD93E095BD99EF97BD8093FD
:101000006E00789408951F920F920FB60F921124DC
:101010008F939F93AF93BF9380916B0290916C02DB
:10102000A0916D02B0916E020196A11DB11D809339
:101030006B0290936C02A0936D02B0936E02BF910D
:10104000AF919F918F910F900FBE0F901F901895A9
:10105000EF92FF920F931F93CF93DF938B015F98D3
:10106000EB01E42EF12CCE01801B910B8E159F0518
:1010700034F4699189E692E00E943307F4CF5F9AD5
:10108000DF91CF911F910F91FF90EF900895579AA4
:1010900089E692E00C942A070E9467000E9486006D
:1010A00088E692E00E941D0386E592E00C94D5024A
:1010B000EE0FFF1F0590F491E02D0994F894FFCFF7
:1010C00062657374616174206E69657400534F4387
:1010D0004B5F55445000534F434B5F49505241576B
:1010E00000534F434B5F434C4F53455F5741495467
:1010F00000534F434B5F45535441424C495348457D
:101100004400534F434B5F4C495354454E00534F9B
:10111000434B5F494E495400534F434B5F434C4F41
:10112000534544004552524F52000A0D006869650C
:101130007221210A0D00202A2A2A0A0D00092A2AD2
:101140002A20446520736572766572205374617439
:10115000757320697320005365727665722073740D
:10116000617274696E6721210A0D004F6E74766199
:101170006E67656E3A20004F6E7476616E67656EBD
:101180002067726F6F7465203D2000436C69656E47
:101190007420636F6E6E65637465640D0A00436C42
:1011A00069656E7420646973636F6E6E65637465E0
:1011B000640D0A006572726F720D0A004641494C57
:1011C0004544210A0D00095352200020476C6F62EC
:1011D000200020736F636B20005741544348444FF5
:1011E000472054494D45522054494D45444F55548C
:1011F00021210A0D526573746174696E67207374DE
:10120000617465206D616368696E650A0D424152C3
:041210004B2100006E
:0400000500800197DF
:00000001FF
