:100000000C9435000C945D000C945D000C945D0024
:100010000C945D000C945D000C945D000C945D00EC
:100020000C945D000C945D000C945D000C945D00DC
:100030000C945D000C945D000C945D000C945D00CC
:100040000C945D000C945D000C945D000C945D00BC
:100050000C945D000C945D000C945D000C945D00AC
:100060000C945D000C945D00920511241FBECFEF2F
:10007000D8E0DEBFCDBF11E0A0E0B1E0ECE3FBE0F3
:1000800002C005900D92AC30B107D9F711E0ACE099
:10009000B1E001C01D92A332B107E1F710E0CAE65A
:1000A000D0E004C02297FE010E949805C836D1070F
:1000B000C9F70E948E050C949C050C94000090E0FA
:1000C000880F991F21E030E0A901082E01C0440FDC
:1000D0000A94EAF7B42F40950196F90102C0EE0F99
:1000E000FF1F8A95E2F7AE2F7E2F709580E090E09B
:1000F000F901082E01C0EE0F0A94EAF7E6235BB17E
:10010000EE2311F05B2B01C054235BB95BB15A2B7A
:100110005BB95BB157235BB901968830910541F714
:100120000895DF92EF92FF920F931F93CF93DF9387
:10013000A82FB0E021E030E0F90102C0EE0FFF1F70
:100140008A95E2F77E2F1E2F1095FD013196C90189
:100150000E2E02C0880F991F0A94E2F7082FF82E7E
:10016000F094129601C0220FAA95EAF7D22EE22E41
:10017000E09420E030E0C1E0D0E0DE01022E01C0DA
:10018000AA0F0A94EAF7B42FBA23A6235BB1AA23D5
:1001900011F0572B01C051235BB95BB1BB2311F0A8
:1001A000502B01C05F215BB95BB15D295BB95BB1CD
:1001B0005E215BB92F5F3F4F28303105F1F62BB13F
:1001C0000E2E01C0880F0A94EAF7809582238BB91E
:1001D000DF91CF911F910F91FF90EF90DF900895E5
:1001E0000F9381E291E00E944B050EED20E040E08C
:1001F0006AE08EE091E00E94E80180E291E00E94D6
:10020000B20240E855E260E070E082E291E00F91D6
:100210000C945C05CF93DF93CDB7DEB7C858D109F6
:100220000FB6F894DEBF0FBECDBF61E0CE0183589C
:100230009F4F0E94060361E0CE018F589F4F0E949E
:10024000060300E010E03CE0F32E0230110579F0E7
:100250003CF40130110509F08DC002E010E08CC0C3
:1002600003301105F1F00430110531F183C060ED68
:1002700077E0CE0183589F4F0E942003CE01835820
:100280009F4F0E942403892B09F474C0CE01835828
:100290009F4F0E947803892B09F46EC003E010E0A1
:1002A0006BC0CE0183589F4F0E94A103892B09F494
:1002B00063C004E010E060C0CE0183589F4F0E94ED
:1002C000260420910C0130910D012817390709F0FF
:1002D0004CC0232B09F450C0E0E0F1E0DE01AB5943
:1002E000BF4F8F2D01900D928A95E1F744E650E0C3
:1002F000BE016F5F7F4FCE0183589F4F0E94420423
:10030000BE016B597F4FCE0183589F4F0E94BA04A4
:10031000BE016F5F7F4FCE0183589F4F0E94BA048A
:10032000BE016B597F4F82E291E00E947C05BE01C5
:100330006F5F7F4F82E291E00E947C058981833765
:1003400079F48A81843761F48B818F3649F48C810A
:10035000803731F4CE0183589F4F0E94CE030AC0EC
:1003600080910C0190910D01019690930D01809365
:100370000C0102C001E010E08FE99FE00197F1F766
:1003800000C0000062CFFC019F01281B390B419186
:100390004111FACF822F0895FC019AE090831182D7
:1003A00012828BE78383148288E085838CED8683B9
:1003B0008EED87838FEA808781E08187928713861D
:1003C000148685878FEF86878787808B118A0895AB
:1003D0000F93FC0160834183228303830F9108956F
:1003E000FC0163830895CF92EF920F93FC01648325
:1003F000458326830783E086C1860F91EF90CF90D7
:100400000895FC01618708950F93FC01628743877B
:10041000248705870F9108950F93FC01668747870E
:10042000208B018B0F910895EF92FF920F931F93F2
:10043000CF93DF9300D0CDB7DEB7162F60EF81E208
:1004400091E02A8349830E945405F82E612F81E2AE
:1004500091E00E945405082F10E00F0D111D4981F5
:10046000642F81E291E00E945405E82EF12CE00E09
:10047000F11C2A81622F81E291E00E9454058E0DC9
:100480000F900F90DF91CF911F910F91FF90EF9000
:1004900008951F93CF93DF931F92CDB7DEB7162F2A
:1004A0006FE081E291E049830E945405612F81E26F
:1004B00091E00E9454054981642F81E291E00E94FD
:1004C000540560E081E291E00F90DF91CF911F91A0
:1004D0000C945405CF92DF92EF92FF920F931F93EB
:1004E000CF93DF936C017901EB01E60EF71E8A01D1
:1004F000CE15DF0549F0402F612FC6010E94490249
:1005000089930F5F1F4FF4CF1882DF91CF911F9116
:100510000F91FF90EF90DF90CF900895CF92DF92F0
:10052000EF92FF920F931F93CF93DF936C017901AA
:100530008B01E40EF51EEA01CE15DF0551F0F8013E
:1005400021918F014C2F6D2FC6010E94140221961C
:10055000F3CFDF91CF911F910F91FF90EF90DF903C
:10056000CF900895EF92FF920F931F93CF93DF9355
:100570001F92CDB7DEB77C0120E840E060E00E942A
:10058000140208E111E031E0F80121918F01432FBD
:1005900060E0C70139830E94140239813F5F353022
:1005A00099F70CE111E0F80121918F01432F60E0F0
:1005B000C70139830E94140239813F5F393099F7AE
:1005C00002E111E0F80121918F01432F60E0C701A2
:1005D00039830E94140239813F5F3F3099F70EE062
:1005E00011E0F80121918F01432F60E0C7013983A9
:1005F0000E94140239813F5F333199F70F90DF91E8
:10060000CF911F910F91FF90EF900895FC016430FE
:1006100028F484E0860F87836087089583E68783C4
:100620008FE580870895FC01148220E525830895D5
:10063000FC01148265830895FC0164834583089559
:10064000FC01658374830895CF93DF93EC0120E16F
:1006500041E06F8180E291E00E94140241E06F81ED
:1006600080E291E00E9449028111F8CF2FEF42E031
:100670006F8180E291E00E94140221E040E06F81EE
:1006800080E291E00E9414022C8144E06F8180E2BC
:1006900091E00E9414022D8145E06F8180E291E09B
:1006A0000E94140221E041E06F8180E291E00E940B
:1006B000140241E06F8180E291E00E9449028111C1
:1006C000F8CF43E06F8180E291E00E9449028331DC
:1006D00051F020E141E06F8180E291E00E9414023C
:1006E00080E090E002C081E090E0DF91CF9108953A
:1006F000CF93DF93EC0122E041E06F8180E291E053
:100700000E94140241E06F8180E291E00E94490260
:100710008111F8CF43E06F8180E291E00E944902AD
:10072000843151F020E141E06F8180E291E00E944C
:10073000140280E090E002C081E090E0DF91CF9170
:10074000089543E0FC01678180E291E00E94490244
:1007500021E030E0873111F020E030E0C901089558
:1007600020E141E0FC01678180E291E00C941402F9
:10077000CF93DF93EC0142E06F8180E291E00E9431
:10078000490283FF06C0CE010E94B00381E090E0E1
:1007900002C080E090E0DF91CF91089528E041E031
:1007A000FC01678180E291E00C941402CF93DF9307
:1007B000EC0142E06F8180E291E00E94490281FFFA
:1007C00005C0CE01DF91CF910C94CE03DF91CF9184
:1007D0000895CF93DF93EC0142E06F8180E291E0D6
:1007E0000E94490281FF05C0CE01DF91CF910C9498
:1007F000CE03DF91CF91089543E0FC01678180E251
:1008000091E00C9449020F931F93CF93DF931F92B3
:10081000CDB7DEB7162F80E291E029830E9449020E
:10082000082F2981422F612F80E291E00E94490226
:10083000202F30E0322F2227A901480F511DCA0175
:100840000F90DF91CF911F910F91089527E246E21B
:10085000FC0167810C9403040F931F93CF93DF93E4
:10086000C62FD22F212F80E291E00E941402202F68
:100870004D2F6C2F80E291E0DF91CF911F910F916E
:100880000C941402AF92BF92CF92DF92EF92FF923C
:100890000F931F93CF93DF93EC015B017A0127E263
:1008A00046E26F810E9403048C01E816F90608F401
:1008B00051C029E248E26F81CE010E940304977083
:1008C000E884F12C2CE0E20EF11CFE2CEE24FF0C4F
:1008D000FF0CFF0CAC014E0D5F1D9C01200F311F62
:1008E0002130384098F0C12C28E0D22EC81AD90AFD
:1008F0009601B50180E291E00E946A0298012C19EC
:100900003D09B5016C0D7D1DA70102C09801B5011F
:1009100080E291E00E946A0229E248E26F81CE0102
:100920000E940304080F191F29E248E26F81CE01DB
:100930000E942C0420E441E06F8180E291E00E945B
:10094000140241E06F8180E291E00E94490281112E
:10095000F8CF03C080E090E002C081E090E0DF913A
:10096000CF911F910F91FF90EF90DF90CF90BF90AC
:10097000AF900895AF92BF92CF92DF92EF92FF9225
:100980000F931F93CF93DF93EC018B01FB016F015A
:10099000C01AD10A81918111FACFEAEEEE2EE3E07E
:1009A000FE2E21E240E26F81CE010E94030421E08D
:1009B000E21AF108E114F10419F480E090E060C05B
:1009C000EFE8F1E03197F1F700C000008C159D05CC
:1009D00040F325E244E26F81CE010E940304977048
:1009E000E884F12CF8E0EF0EF11CFE2CEE24FF0C55
:1009F000FF0CFF0CAC014E0D5F1D9C012C0D3D1D2D
:100A00002130384098F0A12C68E0B62EA81AB90A17
:100A10009501B80180E291E00E948E0296012A19A8
:100A20003B09B8016A0D7B1DA70102C09601B80100
:100A300080E291E00E948E0225E244E26F81CE01C5
:100A40000E9403048C0123E242E26F81CE010E94E6
:100A50002C040C0D1D1D25E244E26F81CE010E9485
:100A60002C0420E241E06F8180E291E00E941402B8
:100A700041E06F8180E291E00E9449028111F8CF4C
:100A8000DF91CF911F910F91FF90EF90DF90CF906A
:100A9000BF90AF9008952A9A8CE284B980E58CBD0E
:100AA0008DB581608DBD08952A986EBD0DB407FE89
:100AB000FDCF2A9A8EB508951092C50087E68093DF
:100AC000C400E0ECF0E080818D7F808386E080933D
:100AD000C20088E18093C100089508958091C0000C
:100AE00087FFFCCF8091C60008958091C00085FFEC
:100AF000FCCF6093C60008950F931F93CF93DF93AD
:100B00008C01EB016991662321F0C8010E947505F3
:100B1000F9CFDF91CF911F910F9108950E94F000BE
:100B20000E940A018EE091E00C94CC01EE0FFF1FB1
:0C0B30000590F491E02D0994F894FFCF9B
:0C0B3C004F6E7476616E67656E3A2000A3
:00000001FF
