:100000000C9446000C946E000C946E000C946E00E0
:100010000C946E000C946E000C946E000C946E00A8
:100020000C946E000C946E000C946E000C946E0098
:100030000C946E000C946E000C945C080C946E0092
:100040000C946E000C946E000C946E000C946E0078
:100050000C946E000C946E000C946E000C946E0068
:100060000C946E000C946E00E501FC0009012D015A
:100070004D01E501E501E501400243024602490266
:100080004C024F0252025502E70AEF0A11241FBE2A
:10009000CFEFD8E0DEBFCDBF12E0A0E0B1E0ECE0F2
:1000A000F6E102C005900D92A237B107D9F712E030
:1000B000A2E7B2E001C01D92A23DB107E1F710E056
:1000C000CCE8D0E004C02297FE010E94000BC838A3
:1000D000D107C9F70E94E30A0C94040B0C940000AA
:1000E0000F93529A569A81E992E00E94A0088BE8F9
:1000F00092E00E9486070EED22E048EA60EC88E775
:1001000092E00E9418038AE892E00E94E90349E025
:1001100050E060E070E08CE892E00F910C94920760
:10012000CF93DF93CDB7DEB7C158D1090FB6F8949E
:10013000DEBF0FBECDBF0E945208EB961FAEEB97FD
:10014000EC961FAEEC97ED961FAEED97EE961FAEB8
:10015000EE97C0908D02D0908E02E0908F02F090CA
:10016000900280918D0290918E02A0918F02B091A9
:10017000900240908D0250908E0260908F0270909D
:10018000900220918D0230918E0240918F02509109
:100190009002C258DF4F288339834A835B83CE574E
:1001A000D04061E0CE018B599F4F0E94430467E924
:1001B00071E08CE892E00E94B20788248394912C2D
:1001C00080918D0290918E02A0918F02B091900249
:1001D00080918D0290918E02A0918F02B091900239
:1001E000A796EEADFFADA797E830F10508F0FDC08A
:1001F000EC5CFF4F0C94FE0A6FEFCE018B599F4FC2
:100200000E94010542E050E0A7965FAF4EAFA7976E
:10021000F0C062E67BE1CE018B599F4F0E947204D1
:10022000CE018B599F4F0E94F605892B79F0CE01A4
:100230008B599F4F0E944406892B09F4DAC083E052
:1002400090E0A7969FAF8EAFA797D3C06CEF71E0F9
:100250008CE892E00E94C407C8C0CE018B599F4F22
:100260000E942405873021F4A7961FAE1EAEA797E3
:10027000CE018B599F4F0E947604892B09F4B9C097
:100280006BEC71E08CE892E00E94B207A4E0B0E071
:10029000A796BFAFAEAFA797ACC0CE018B599F4F0B
:1002A0000E944E055C01009709F475C080917602AA
:1002B000909177020196909377028093760244E6BC
:1002C00050E0BE016F5F7F4FCE018B599F4F0E9460
:1002D0006A06FE0131961F01AE0EBF1E2A143B04B2
:1002E000A9F08101D1016D911D0182E992E00E9486
:1002F000C708F80160818CE892E00E94D60768E2A6
:1003000072E08CE892E00E94C407E8CF66E072E0F9
:100310008CE892E00E94C4071AE082E992E00E9411
:10032000C60A892B89F5609193028CE892E00E94BD
:10033000D60768E272E08CE892E00E94C407609100
:1003400094028CE892E00E94D60768E272E08CE8A2
:1003500092E00E94C407609195028CE892E00E94AE
:10036000D60768E272E08CE892E00E94C4076091D0
:1003700096028CE892E00E94D6076FE072E08CE86B
:1003800092E00E94C40707C082E992E00E94CA0A74
:10039000115019F6C8CFCE018B599F4F0E94D70438
:1003A000182F882331F16EED71E08CE892E00E9405
:1003B000B207612F8CE892E00E94D6076AE671E0EE
:1003C0008CE892E00E94B20710C062E172E08CE813
:1003D00092E00E94C407CE018B599F4F0E94A30454
:1003E000CE018B599F4F0E948504A7969FAE8EAE7B
:1003F000A797A7962EAD3FADA79780918D029091BC
:100400008E02A0918F02B09190028C199D09AE09C5
:10041000BF0988399A43A105B10540F4A9968EAD6C
:100420009FADA9978217930709F47FC0A9963FAFA4
:100430002EAFA997C0908D02D0908E02E0908F02CF
:10044000F09090026DE771E08CE892E00E94B207B4
:10045000A6966FADA6978CE892E00E94D60760E260
:100460008CE892E00E94AB075D9AA796EEADFFADD7
:10047000A797E830F105E0F4E45CFF4F0C94FE0A26
:1004800064E671E017C068E571E014C06EE471E0E5
:1004900011C062E471E00EC061E371E00BC061E283
:1004A00071E008C066E171E005C06DE071E002C076
:1004B00060E071E08CE892E00E94B20765E272E0D1
:1004C0008CE892E00E94C407CE018B599F4F0E9496
:1004D000F404682F8CE892E00E94D6076AE272E08A
:1004E0008CE892E00E94C407CE018B599F4F0E9476
:1004F000FA04682F8CE892E00E94D60761E372E06C
:100500008CE892E00E94C407CE018B599F4F0E9455
:100510002405682F8CE892E00E94D60766E771E018
:100520008CE892E00E94B2075D9880918D029091D4
:100530008E02A0918F02B0919002C258DF4F2881A5
:1005400039814A815B81CE57D040821B930BA40B2B
:10055000B50BC297A105B10560F120918D023091D4
:100560008E0240918F0250919002C258DF4F288333
:1005700039834A835B83CE57D040E2E7F2E0A3E9B8
:10058000B2E080819D91891710F48F5F8083808114
:10059000981710F481508083319632E0E637F307E4
:1005A00081F744E0BE0166587F4F81E992E00E94E6
:1005B000810880918D0290918E02A0918F02B0915E
:1005C000900284199509A609B709843F9140A105B5
:1005D000B10560F040908D0250908E0260908F02C5
:1005E000709090028BB194E089278BB9CE018B5922
:1005F0009F4F0E946E05E4CDFC019AE0908311822A
:1006000012828BE78383148288E085838CED868356
:100610008EED87838FEA808781E0818792871386BA
:10062000148685878FEF86878787808B118A089548
:100630000F93FC0160834183228303830F9108950C
:10064000FC0163830895CF92EF920F93FC016483C2
:10065000458326830783E086C1860F91EF90CF9074
:100660000895FC01618708950F93FC016287438719
:10067000248705870F9108950F93FC0166874787AC
:10068000208B018B0F910895229A0895EF92FF928B
:100690000F931F93CF93DF9300D0CDB7DEB7162F04
:1006A0002A9860EF8BE892E02A8349830E948C07A6
:1006B000F82E612F8BE892E00E948C07082F10E043
:1006C0000F0D111D4981642F8BE892E00E948C0769
:1006D000E82EF12CE00EF11C2A81622F8BE892E0CB
:1006E0000E948C072A9A8E0D0F900F90DF91CF9168
:1006F0001F910F91FF90EF9008951F93CF93DF9379
:100700001F92CDB7DEB7162F2A986FE08BE892E0E4
:1007100049830E948C07612F8BE892E00E948C072E
:100720004981642F8BE892E00E948C0764E18BE89A
:1007300092E00E948C072A9A0F90DF91CF911F912F
:100740000895CF92DF92EF92FF920F931F93CF9372
:10075000DF936C017901EB01E60EF71E8A01CE15DD
:10076000DF0549F0402F612FC6010E947D03899368
:100770000F5F1F4FF4CF1882DF91CF911F910F9120
:10078000FF90EF90DF90CF900895CF92DF92EF929D
:10079000FF920F931F93CF93DF936C0179018B012D
:1007A000E40EF51EEA01CE15DF0551F0F8012191A6
:1007B0008F014C2F6D2FC6010E9446032196F3CF67
:1007C000DF91CF911F910F91FF90EF90DF90CF902D
:1007D0000895EF92FF920F931F93CF93DF931F9291
:1007E000CDB7DEB77C0120E840E060E00E94460320
:1007F0002FEF46E160E0C7010E94460302E812E0E5
:1008000031E0F80121918F01432F60E0C701398366
:100810000E94460339813F5F353099F706E812E0C0
:10082000F80121918F01432F60E0C70139830E94B5
:10083000460339813F5F393099F70CE712E0F80140
:1008400021918F01432F60E0C70139830E94460345
:1008500039813F5F3F3099F708E712E0F8012191B5
:100860008F01432F60E0C70139830E94460339811D
:100870003F5F333199F70F90DF91CF911F910F9127
:10088000FF90EF900895FC01262F118210821382B1
:10089000128240918D0250918E0260918F02709170
:1008A0009002448355836683778380E395E791873D
:1008B0008087243028F484E0820F808B218B089578
:1008C00083E6808B8FE5818B0895FC01168620E5F9
:1008D00027870895FC01168667870895FC016687BF
:1008E00047870895FC0167877687089543E0FC01F8
:1008F00060898AE892E00E947D0321E030E0873140
:1009000011F020E030E0C901089520E141E0FC0150
:1009100060898AE892E00C944603CF93DF93EC0160
:1009200042E068898AE892E00E947D0383FF06C066
:10093000CE010E94850481E090E002C080E090E05A
:10094000DF91CF91089528E041E0FC0160898AE8B9
:1009500092E00C944603CF93DF93EC0142E0688968
:100960008AE892E00E947D0381FF06C0CE010E94CA
:10097000A30481E090E002C080E090E0DF91CF919D
:100980000895CF93DF93EC0142E068898AE892E012
:100990000E947D0381FF06C0CE010E94A30481E076
:1009A00090E002C080E090E0DF91CF9108950F9336
:1009B0001F93CF93DF938C010E948D04EC01C8013B
:1009C0000E94C104880F991FC80FD91FC8010E9437
:1009D000AB04880F991F880F991F8C0F9D1FDF9103
:1009E000CF911F910F91089543E060E08AE892E073
:1009F0000C947D0345E1FC0160898AE892E00C9447
:100A00007D03EF92FF921F93CF93DF931F92CDB799
:100A1000DEB77C01262F42E0FC0160898AE892E083
:100A200029830E947D03182F298142E0F701608904
:100A30008AE892E00E944603812F0F90DF91CF91C8
:100A40001F91FF90EF90089542E0FC0160898AE8D1
:100A500092E00C947D030F931F93CF93DF931F922B
:100A6000CDB7DEB7162F8AE892E029830E947D0376
:100A7000082F2981422F612F8AE892E00E947D038E
:100A8000202F30E0322F2227A901480F511DCA0123
:100A90000F90DF91CF911F910F91089527E246E2C9
:100AA000FC0160890C942B050F931F93CF93DF9368
:100AB000C62FD22F212F8AE892E00E944603202FD2
:100AC0004D2F6C2F8AE892E0DF91CF911F910F910B
:100AD0000C944603FC017187608708950F931F9360
:100AE000CF93DF93EC01888199819C0121503109DA
:100AF0002230310560F440918D0250918E02609158
:100B00008F02709190024C835D836E837F832A8174
:100B10003B818217930779F09B838A8340918D02F2
:100B200050918E0260918F02709190024C835D8390
:100B30006E837F8335C040918D0250918E0260910B
:100B40008F02709190020C811D812E813F81401B8C
:100B5000510B620B730B0885198520E030E04017BC
:100B6000510762077307E0F068E372E08CE892E0F7
:100B70000E94C40740918D0250918E0260918F02B5
:100B8000709190024C835D836E837F83CE010E94BF
:100B9000A304CE010E94850481E090E099838883BC
:100BA000DF91CF911F910F9108950F931F93CF93D2
:100BB000DF938C01C4E6D0E041E0F80160898AE867
:100BC00092E00E947D03882359F08FE99FE001970E
:100BD000F1F700C000002197209771F780E001C075
:100BE00081E0DF91CF911F910F910895CF93DF9313
:100BF000EC0120E141E068898AE892E00E94460326
:100C0000CE010E94D505882381F12FEF42E068894B
:100C10008AE892E00E94460321E040E068898AE881
:100C200092E00E9446032E8544E068898AE892E0BB
:100C30000E9446032F8545E068898AE892E00E9479
:100C4000460321E041E068898AE892E00E94460379
:100C5000CE010E94D505882341F043E068898AE8E7
:100C600092E00E947D03833151F020E141E06889E8
:100C70008AE892E00E94460380E090E002C081E0B2
:100C800090E0DF91CF910895CF93DF93EC0122E0C4
:100C900041E068898AE892E00E944603CE010E9402
:100CA000D505882341F043E068898AE892E00E94F4
:100CB0007D03843151F020E141E068898AE892E0C7
:100CC0000E94460380E090E002C081E090E0DF9166
:100CD000CF910895AF92BF92CF92DF92EF92FF92A1
:100CE0000F931F93CF93DF93EC015B017A0127E20F
:100CF00046E268890E942B058C0129E248E2688956
:100D0000CE01E016F106F0F40E942B05080F191F22
:100D100029E248E26889CE010E94540520E441E0BE
:100D200068898AE892E00E944603CE010E94D505B8
:100D3000811151C020E141E068898AE892E00E9477
:100D4000460349C00E942B059770E988F12C2CE0DE
:100D5000E20EF11CFE2CEE24FF0CFF0CFF0CAC018C
:100D60004E0D5F1D9C01200F311F2130384098F03F
:100D7000C12C68E0D62EC81AD90A9601B5018AE8B6
:100D800092E00E94A10398012C193D09B5016C0D58
:100D90007D1DA70102C09801B5018AE892E00E947A
:100DA000A10329E248E26889CE010E942B05080FC1
:100DB000191F29E248E26889CE010E94540520E407
:100DC00041E068898AE892E00E944603CE010E94D1
:100DD000D50590E002C080E090E0DF91CF911F91B7
:100DE0000F91FF90EF90DF90CF90BF90AF9008955C
:100DF000AF92BF92CF92DF92EF92FF920F931F9329
:100E0000CF93DF93EC018B01FB016F01C01AD10A74
:100E100081918111FACFAAEEEA2EA3E0FA2E21E207
:100E200040E26889CE010E942B0521E0E21AF10818
:100E3000E114F10409F45DC0EFE8F1E03197F1F756
:100E400000C000008C159D0550F325E244E268893E
:100E5000CE010E942B059770E988F12CF8E0EF0E87
:100E6000F11CFE2CEE24FF0CFF0CFF0CAC014E0D10
:100E70005F1D9C012C0D3D1D2130384098F0A12CA8
:100E8000E8E0BE2EA81AB90A9501B8018AE892E0F6
:100E90000E94C50396012A193B09B8016A0D7B1D02
:100EA000A70102C09601B8018AE892E00E94C5033A
:100EB00025E244E26889CE010E942B058C0123E2E1
:100EC00042E26889CE010E9454050C0D1D1D25E2E9
:100ED00044E26889CE010E94540520E241E068891D
:100EE0008AE892E00E944603CE010E94D505811156
:100EF00002C080E090E0DF91CF911F910F91FF90B1
:100F0000EF90DF90CF90BF90AF90089584B188624A
:100F100084B982E58CBD08956EBD0DB407FEFDCF8A
:100F20008EB508951092C50083E38093C400E0EC71
:100F3000F0E080818D7F808386E08093C20088E12D
:100F40008093C100089508958091C00087FFFCCF71
:100F50008091C60008958091C00085FFFCCF60930A
:100F6000C60008950F931F93CF93DF938C01EB017D
:100F70006991662321F0C8010E94AB07F9CFDF9188
:100F8000CF911F910F9108950F931F93CF93DF93EC
:100F90008C01EB016991662321F0C8010E94AB0727
:100FA000F9CFDF91CF911F910F910895CF92DF92EA
:100FB000EF92FF920F931F93CF93DF9300D01F9276
:100FC000CDB7DEB77C0119821A821B824FE050E058
:100FD00021E030E070E0CB01042E02C095958795AA
:100FE0000A94E2F781709927F901A1E0B0E0AC0F13
:100FF000BD1FAE0FBF1F1C91153010F003E001C0E4
:1010000000E0100F1C933196E330F10574F3E1E03A
:10101000F0E0EC0FFD1FE20FF31FE081E83010F06D
:1010200021503109F901A1E0B0E0AC0FBD1FAE0FB6
:10103000BF1F1C91110F1F7001E01196DC901197DA
:1010400097E0C92ECD1408F000E0102B1C933196C8
:10105000E230F10541F79B81990F9F70982B9B839C
:101060004150510908F0B7CF8E010F5F1F4F6E013D
:10107000E4E0CE0ED11CF8016081605D61938F01C8
:10108000C7010E94AB070C151D05A9F70F900F9023
:101090000F90DF91CF911F910F91FF90EF90DF9014
:1010A000CF90089582E084BD93E095BD99EF97BD00
:1010B00080936E00789408951F920F920FB60F924E
:1010C00011248F939F93AF93BF9380918D02909142
:1010D0008E02A0918F02B09190020196A11DB11DC8
:1010E00080938D0290938E02A0938F02B093900212
:1010F000BF91AF919F918F910F900FBE0F901F9056
:101100001895EF92FF920F931F93CF93DF938B016C
:101110005F98EB01E42EF12CCE01801B910B8E1514
:101120009F0534F469918BE892E00E948C07F4CF1C
:101130005F9ADF91CF911F910F91FF90EF900895EB
:10114000579A8BE892E00C948607FC011082089570
:10115000DC01D6969C91D697D596EC91D597F0E088
:10116000E91BF109EA0FFB1F83859150D6969C93EA
:101170000895FC0186A90895FC0181AD8F5F6EE1A1
:101180000E94F20A91AF82AD8F5F82AF0895CF9235
:10119000DF92EF92FF920F931F93CF93DF93EC01B7
:1011A0008BAD823019F178F48823B1F0813009F0E9
:1011B00037C16CAF8FA998AD860F911D98AF8FABDB
:1011C0001DAE82E059C0843009F458C008F452C002
:1011D000853009F456C024C16A3A09F022C18AEA6E
:1011E00090E098AF8FAB81E08BAF1CC14CAD42302B
:1011F00049F018F44423F1F114C1433071F0443044
:10120000F9F00FC19DAD81E0890F8DAFFE01E90FAF
:10121000F11D66A7823028F526C08DAD21E0280F8C
:101220002DAFFE01E80FF11D66A72230E0F08FA57B
:1012300090E0019630E082179307ACF44BAF13C0F7
:101240008DAD21E0280F2DAFFE01E80FF11D66A73F
:10125000222349F08EA590E0019630E08217930793
:1012600014F483E08BAF8FA998AD860F911D98AFD2
:101270008FABD7C06EAF84E08BAFD3C06FAF85E0CC
:101280008BAF4EAD50E081E090E02FA938AD421712
:10129000530711F080E090E02FAD922B892B29F4B9
:1012A0001BAE87E08CAF8FEFBDC08CAD823079F183
:1012B00040F48823B9F0813009F0B2C08EA588834C
:1012C000AFC0833051F0843009F0AAC0AFA54A2FD7
:1012D00050E020E030E0B5E08BC02FA530E080E0AA
:1012E00090E043C06AEACE010E94BC0863E0CE01F0
:1012F0000E94BC0861E0CE010E94BC086881CE015A
:101300000E94BC08088110E002551F4F68C06AEABD
:10131000CE010E94BC0863E0CE010E94BC086FA50C
:10132000CE010E94BC080FA510E003551F4FE12C11
:10133000F12C8FA590E0E816F90608F050C08EA5B4
:101340006E01CE0CDF1CF601E80FF11D6181CE01AC
:101350000E94BC088EA5F601E80FF11D8181080FDF
:10136000111D8FEFE81AF80AE4CF8217930750F4A3
:10137000FE01E80FF91F40A95EA5E50FF11D4183AD
:101380000196F3CF6AEACE010E94BC0863E0CE0169
:101390000E94BC086FA5CE010E94BC080FA510E0FA
:1013A00003551F4FE12CF12C8FA590E0E816F906AC
:1013B000B0F48EA56E01CE0CDF1CF601E80FF11D16
:1013C0006181CE010E94BC088EA5F601E80FF11DD7
:1013D0008181080F111D8FEFE81AF80AE5CF602F01
:1013E000CE010E94BC08612FCE010E94BC0818C02B
:1013F0008DA92417350790F491E0980F9DABFE015D
:10140000E20FF31F90A9E80FF11D93878EA96B2FB0
:101410000E94F20A9EAB2F5F3F4FEACF8A0F8DAB3F
:101420001BAE81E0DF91CF911F910F91FF90EF9064
:10143000DF90CF9008951F93CF93DF93EC01162F89
:101440006AEA0E94BC0866E0CE010E94BC08112333
:1014500031F061E0CE010E94BC0861EB05C060E0A4
:10146000CE010E94BC0860EBCE010E94BC0860E087
:10147000CE01DF91CF911F910C94BC088F929F9267
:10148000AF92BF92CF92DF92EF92FF920F931F9392
:10149000CF93DF9300D0CDB7DEB74C01162F690193
:1014A0006AEA49835A830E94BC0862E0C4010E9430
:1014B000BC08612FC4010E94BC086C2DC4010E94AD
:1014C000BC0876018CEAE80EF11CE10EF11C4981A2
:1014D000042F5A81152FC00ED11E0C151D0561F069
:1014E0005801F80161918F01C4010E94BC08F50107
:1014F0008081E80EF11CF1CF6E2DC4010E94BC0862
:101500006F2DC4010F900F90DF91CF911F910F911C
:10151000FF90EF90DF90CF90BF90AF909F908F9013
:101520000C94BC08EF92FF920F931F93CF93DF931D
:101530001F92CDB7DEB77C01062F6AEA49830E946D
:10154000BC0862E0C7010E94BC08602FC7010E946E
:10155000BC0861E0C7010E94BC0810E003551F4FA2
:101560004981040F111D642FC7010E94BC08602F20
:10157000C7010E94BC08612FC7010F90DF91CF9176
:101580001F910F91FF90EF900C94BC08FC0182AD6D
:1015900090E00895FC01A1ADB0E042AD242F30E011
:1015A000CD01821B930B415042AF97FF08C05E965E
:1015B000A21BB30BAE0FBF1F50968C910895E80F7E
:1015C000F91F808908950E9470000E9490008AE8A7
:1015D00092E00E94440388E792E00C94FC0210928F
:1015E00092020895991B79E004C0991F961708F09C
:1015F000961B881F7A95C9F780950895EE0FFF1FF7
:0C1600000590F491E02D0994F894FFCFC0
:10160C0062657374616174206E69657400534F4335
:10161C004B5F55445000534F434B5F495052415719
:10162C0000534F434B5F434C4F53455F5741495415
:10163C0000534F434B5F45535441424C495348452B
:10164C004400534F434B5F4C495354454E00534F4A
:10165C00434B5F494E495400534F434B5F434C4FF0
:10166C00534544004552524F52000A0D00686965BB
:10167C007221210A0D00202A2A2A0A0D00092A2A81
:10168C002A204465207365727665722053746174E8
:10169C0075732069732000536572766572207374BC
:1016AC00617274696E6721210A0D004F6E74766148
:1016BC006E67656E3A20004F6E7476616E67656E6C
:1016CC002067726F6F7465203D2000436C69656EF6
:1016DC007420636F6E6E65637465640D0A00436CF1
:1016EC0069656E7420646973636F6E6E656374658F
:1016FC00640D0A006572726F720D0A004641494C06
:10170C004544210A0D003C2D20696E627566660DFC
:10171C000A004552524F52204465746563746564E7
:10172C0021210A0D00095352200020476C6F6220C2
:10173C000020736F636B20005741544348444F475C
:10174C002054494D45522054494D45444F55542140
:10175C00210A0D526573746174696E67207374612C
:10176C007465206D616368696E650A0D4241524B68
:02177C0021004A
:0400000500800197DF
:00000001FF
