:100000000C9446000C946E000C946E000C946E00E0
:100010000C946E000C946E000C946E000C946E00A8
:100020000C946E000C946E000C946E000C946E0098
:100030000C946E000C946E000C94E2070C946E000D
:100040000C946E000C946E000C946E000C946E0078
:100050000C946E000C946E000C946E000C946E0068
:100060000C946E000C946E00A401FE0003012701A5
:100070004101A401A401A401F901FC01FF01020254
:10008000050208020B020E026D0A750A11241FBE3A
:10009000CFEFD8E0DEBFCDBF12E0A0E0B1E0E8E1F5
:1000A000F5E102C005900D92A435B107D9F712E031
:1000B000A4E5B2E001C01D92A43BB107E1F710E056
:1000C000CCE8D0E004C02297FE010E94860AC8381E
:1000D000D107C9F70E94690A0C948A0A0C9400009F
:1000E0000F93529A83E792E00E9426088DE692E0F1
:1000F0000E940C070EED22E048EA60EC8AE592E0EF
:100100000E94D3028CE692E00E94A40349E050E0F2
:1001100060E070E08EE692E00F910C941807CF93A8
:10012000DF93CDB7DEB7C158D1090FB6F894DEBF63
:100130000FBECDBF0E94D807EB961FAEEB97EC9693
:100140001FAEEC97ED961FAEED97EE961FAEEE97B5
:10015000C0906F02D0907002E0907102F090720235
:1001600080916F0290917002A0917102B091720221
:1001700040906F0250907002609071027090720215
:1001800020916F0230917002409171025091720281
:10019000C258DF4F288339834A835B83CE57D040D0
:1001A00061E0CE018B599F4F0E94FE0367E971E029
:1001B0008EE692E00E943807AA24A394B12C92E024
:1001C000292E312C80916F0290917002A0917102C2
:1001D000B091720280916F0290917002A0917102B1
:1001E000B0917202A796EEADFFADA797E830F1058A
:1001F00008F0B4C0EC5CFF4F0C94840AA7963FAEA5
:100200002EAEA797AFC062E67BE1CE018B599F4F20
:100210000E942D04CE018B599F4F0E943104892BDF
:1002200079F0CE018B599F4F0E948504892B09F4E8
:1002300099C043E050E0A7965FAF4EAFA79792C03A
:100240006CEF71E08EE692E00E944A0787C0CE0113
:100250008B599F4F0E943905CE018B599F4F0E94A9
:10026000AE04892B09F47EC06BEC71E08EE692E05F
:100270000E94380784E090E0A7969FAF8EAFA797C3
:1002800071C0CE018B599F4F0E94630500915802A7
:10029000109159020817190729F090935902809379
:1002A000580238C001151105A9F1C80101969093B3
:1002B00059028093580244E650E0BE016F5F7F4FC1
:1002C000CE018B599F4F0E947F05DE0111964D0193
:1002D0000A0F1B1F8016910641F0D4016D914D014C
:1002E00084E792E00E944D08F5CF1AE084E792E09F
:1002F0000E944C0A892B39F4609176028EE692E0D6
:100300000E945C0707C084E792E00E94500A1150E7
:1003100069F7F2CFCE018B599F4F0E940F05182F1E
:10032000882301F16EED71E08EE692E00E943807BD
:10033000612F8EE692E00E945C076AE671E08EE62D
:1003400092E00E9438070AC0CE018B599F4F0E944D
:10035000DB04CE018B599F4F0E94BD04A796BFAE10
:10036000AEAEA797A7962EAD3FADA79780916F022F
:1003700090917002A0917102B09172028C199D0946
:10038000AE09BF0988399A43A105B10540F4A99681
:100390008EAD9FADA9978217930709F481C0A996E6
:1003A0003FAF2EAFA997C0906F02D0907002E0903F
:1003B0007102F09072026DE771E08EE692E00E94A9
:1003C0003807A6966FADA6978EE692E00E945C076E
:1003D00060E28EE692E00E9431075D9AA796EEAD4C
:1003E000FFADA797E830F105E0F4E45CFF4F0C9413
:1003F000840A64E671E017C068E571E014C06EE439
:1004000071E011C062E471E00EC061E371E00BC005
:1004100061E271E008C066E171E005C06DE071E085
:1004200002C060E071E08EE692E00E94380766E06C
:1004300072E08EE692E00E944A075E9ACE018B59E6
:100440009F4F0E942C05682F8EE692E00E945C0769
:100450005E986BE072E08EE692E00E944A07CE0161
:100460008B599F4F0E943205682F8EE692E00E94C2
:100470005C0762E172E08EE692E00E944A07CE01DC
:100480008B599F4F0E943905682F8EE692E00E949B
:100490005C0766E771E08EE692E00E9438075D989F
:1004A00080916F0290917002A0917102B0917202DE
:1004B000C258DF4F288139814A815B81CE57D040B5
:1004C000821B930BA40BB50BC297A105B10560F17C
:1004D00020916F023091700240917102509172022E
:1004E000C258DF4F288339834A835B83CE57D0407D
:1004F000E4E5F2E0A5E7B2E080819D91891710F470
:100500008F5F80838081981710F4815080833196AB
:1005100032E0E835F30781F744E0BE0166587F4FCB
:1005200083E792E00E94070880916F029091700229
:10053000A0917102B091720284199509A609B709B8
:10054000843F9140A105B10560F040906F0250904A
:10055000700260907102709072028BB194E08927F2
:100560008BB9CE018B599F4F0E94A5062BCEFC0163
:100570009AE09083118212828BE78383148288E051
:1005800085838CED86838EED87838FEA808781E07B
:10059000818792871386148685878FEF8687878762
:1005A000808B118A08950F93FC016083418322831D
:1005B00003830F910895FC0163830895CF92EF9216
:1005C0000F93FC016483458326830783E086C186FD
:1005D0000F91EF90CF900895FC01618708950F93DC
:1005E000FC0162874387248705870F9108950F9345
:1005F000FC0166874787208B018B0F910895229A13
:100600000895EF92FF920F931F93CF93DF9300D043
:10061000CDB7DEB7162F2A9860EF8DE692E02A83D9
:1006200049830E941207F82E612F8DE692E00E9406
:100630001207082F10E00F0D111D4981642F8DE660
:1006400092E00E941207E82EF12CE00EF11C2A81A4
:10065000622F8DE692E00E9412072A9A8E0D0F906B
:100660000F90DF91CF911F910F91FF90EF90089520
:100670001F93CF93DF931F92CDB7DEB7162F2A9823
:100680006FE08DE692E049830E941207612F8DE6AC
:1006900092E00E9412074981642F8DE692E00E9449
:1006A000120764E18DE692E00E9412072A9A0F90E9
:1006B000DF91CF911F910895CF92DF92EF92FF9239
:1006C0000F931F93CF93DF936C017901EB01E60E3B
:1006D000F71E8A01CE15DF0549F0402F612FC601B4
:1006E0000E94380389930F5F1F4FF4CF1882DF9168
:1006F000CF911F910F91FF90EF90DF90CF900895D1
:10070000CF92DF92EF92FF920F931F93CF93DF93DD
:100710006C0179018B01E40EF51EEA01CE15DF05AF
:1007200051F0F80121918F014C2F6D2FC6010E94CD
:1007300001032196F3CFDF91CF911F910F91FF908D
:10074000EF90DF90CF900895EF92FF920F931F9359
:10075000CF93DF931F92CDB7DEB77C0120E840E056
:1007600060E00E9401032FEF46E160E0C7010E94B4
:10077000010304E612E031E0F80121918F01432FDB
:1007800060E0C70139830E94010339813F5F353042
:1007900099F708E612E0F80121918F01432F60E0FC
:1007A000C70139830E94010339813F5F393099F7CE
:1007B0000EE512E0F80121918F01432F60E0C7019F
:1007C00039830E94010339813F5F3F3099F70AE581
:1007D00012E0F80121918F01432F60E0C7013983B6
:1007E0000E94010339813F5F333199F70F90DF9108
:1007F000CF911F910F91FF90EF900895FC01262F4C
:10080000118210821382128240916F025091700205
:10081000609171027091720244835583668377837D
:1008200080E395E791878087243028F484E0820F65
:10083000808B218B089583E6808B8FE5818B0895D3
:10084000FC01168620E527870895FC011686678738
:100850000895FC01668747870895FC0167877687BE
:100860000895CF93DF93EC0120E141E068898CE6A5
:1008700092E00E94010341E068898CE692E00E94C8
:1008800038038111F8CF2FEF42E068898CE692E0BF
:100890000E94010321E040E068898CE692E00E941A
:1008A00001032E8544E068898CE692E00E940103F2
:1008B0002F8545E068898CE692E00E94010321E0E3
:1008C00041E068898CE692E00E94010341E068897A
:1008D0008CE692E00E9438038111F8CF43E06889EA
:1008E0008CE692E00E943803833151F020E141E030
:1008F00068898CE692E00E94010380E090E002C0EB
:1009000081E090E0DF91CF910895CF93DF93EC01E8
:1009100022E041E068898CE692E00E94010341E018
:1009200068898CE692E00E9438038111F8CF43E099
:1009300068898CE692E00E943803843151F020E10E
:1009400041E068898CE692E00E94010380E090E03B
:1009500002C081E090E0DF91CF91089543E0FC0177
:1009600060898CE692E00E94380321E030E0873114
:1009700011F020E030E0C901089520E141E0FC01E0
:1009800060898CE692E00C940103CF93DF93EC0135
:1009900042E068898CE692E00E94380383FF06C03B
:1009A000CE010E94BD0481E090E002C080E090E0B2
:1009B000DF91CF91089528E041E0FC0160898CE649
:1009C00092E00C940103CF93DF93EC0142E068893D
:1009D0008CE692E00E94380381FF06C0CE010E949F
:1009E000DB0481E090E002C080E090E0DF91CF91F5
:1009F0000895CF93DF93EC0142E068898CE692E0A2
:100A00000E94380381FF06C0CE010E94DB0481E012
:100A100090E002C080E090E0DF91CF9108950F93C5
:100A20001F93CF93DF938C010E94C504EC01C80192
:100A30000E94F904880F991FC80FD91FC8010E948E
:100A4000E304880F991F880F991F8C0F9D1FDF915A
:100A5000CF911F910F91089543E060E08CE692E002
:100A60000C94380345E1FC0160898CE692E00C941B
:100A7000380342E0FC0160898CE692E00C94380374
:100A80000F931F93CF93DF931F92CDB7DEB7162F2F
:100A90008CE692E029830E943803082F2981422F97
:100AA000612F8CE692E00E943803202F30E0322F35
:100AB0002227A901480F511DCA010F90DF91CF9144
:100AC0001F910F91089527E246E2FC0160890C9482
:100AD00040050F931F93CF93DF93C62FD22F212F63
:100AE0008CE692E00E940103202F4D2F6C2F8CE6A4
:100AF00092E0DF91CF911F910F910C940103AF927F
:100B0000BF92CF92DF92EF92FF920F931F93CF93FA
:100B1000DF93EC015B017A0127E246E268890E94DB
:100B200040058C0129E248E26889CE01E016F10611
:100B3000D0F40E944005080F191F29E248E2688995
:100B4000CE010E94690520E441E068898CE692E0CC
:100B50000E94010341E068898CE692E00E9438031C
:100B60008111F8CF4DC00E9440059770E988F12CA3
:100B70002CE0E20EF11CFE2CEE24FF0CFF0CFF0C0F
:100B8000AC014E0D5F1D9C01200F311F21303840FC
:100B900098F0C12C68E0D62EC81AD90A9601B50182
:100BA0008CE692E00E945C0398012C193D09B50186
:100BB0006C0D7D1DA70102C09801B5018CE692E085
:100BC0000E945C0329E248E26889CE010E94400548
:100BD000080F191F29E248E26889CE010E946905C1
:100BE00020E441E068898CE692E00E94010341E044
:100BF00068898CE692E00E9438038111F8CF03C027
:100C000080E090E002C081E090E0DF91CF911F9101
:100C10000F91FF90EF90DF90CF90BF90AF9008952D
:100C2000AF92BF92CF92DF92EF92FF920F931F93FA
:100C3000CF93DF93EC018B01FB016F01C01AD10A46
:100C400081918111FACFAAEEEA2EA3E0FA2E21E2D9
:100C500040E26889CE010E94400521E0E21AF108D5
:100C6000E114F10419F480E090E060C0EFE8F1E0F5
:100C70003197F1F700C000008C159D0540F325E287
:100C800044E26889CE010E9440059770E988F12C02
:100C9000F8E0EF0EF11CFE2CEE24FF0CFF0CFF0C15
:100CA000AC014E0D5F1D9C012C0D3D1D21303840C7
:100CB00098F0A12CE8E0BE2EA81AB90A9501B80157
:100CC0008CE692E00E94800396012A193B09B80144
:100CD0006A0D7B1DA70102C09601B8018CE692E067
:100CE0000E94800325E244E26889CE010E9440050B
:100CF0008C0123E242E26889CE010E9469050C0D55
:100D00001D1D25E244E26889CE010E94690520E2AA
:100D100041E068898CE692E00E94010341E0688925
:100D20008CE692E00E9438038111F8CFDF91CF91D9
:100D30001F910F91FF90EF90DF90CF90BF90AF90F9
:100D40000895FC017187608708950F931F93CF93D7
:100D5000DF93EC01888199819C0121503109223077
:100D6000310560F440916F02509170026091710200
:100D7000709172024C835D836E837F832A813B81F5
:100D80008217930779F09B838A8340916F02509179
:100D9000700260917102709172024C835D836E8368
:100DA0007F8335C040916F02509170026091710253
:100DB000709172020C811D812E813F81401B510B6D
:100DC000620B730B0885198520E030E0401751074E
:100DD00062077307E0F069E172E08EE692E00E943C
:100DE0004A0740916F0250917002609171027091B8
:100DF00072024C835D836E837F83CE010E94DB048D
:100E0000CE010E94BD0481E090E099838883DF9148
:100E1000CF911F910F91089584B1886284B980E5C4
:100E20008CBD08956EBD0DB407FEFDCF8EB508953F
:100E30001092C50083E38093C400E0ECF0E0808171
:100E40008D7F808386E08093C20088E18093C1001B
:100E5000089508958091C00087FFFCCF8091C6005F
:100E600008958091C00085FFFCCF6093C60008956F
:100E70000F931F93CF93DF938C01EB01699166234E
:100E800021F0C8010E943107F9CFDF91CF911F9166
:100E90000F9108950F931F93CF93DF938C01EB0174
:100EA0006991662321F0C8010E943107F9CFDF91D3
:100EB000CF911F910F910895CF92DF92EF92FF9201
:100EC0000F931F93CF93DF9300D01F92CDB7DEB760
:100ED0007C0119821A821B824FE050E021E030E051
:100EE00070E0CB01042E02C0959587950A94E2F735
:100EF00081709927F901A1E0B0E0AC0FBD1FAE0FE2
:100F0000BF1F1C91153010F003E001C000E0100F6E
:100F10001C933196E330F10574F3E1E0F0E0EC0F5F
:100F2000FD1FE20FF31FE081E83010F0215031097E
:100F3000F901A1E0B0E0AC0FBD1FAE0FBF1F1C91C7
:100F4000110F1F7001E01196DC90119797E0C92EE8
:100F5000CD1408F000E0102B1C933196E230F1051F
:100F600041F79B81990F9F70982B9B8341505109AA
:100F700008F0B7CF8E010F5F1F4F6E01E4E0CE0E79
:100F8000D11CF8016081605D61938F01C7010E94EF
:100F900031070C151D05A9F70F900F900F90DF91E9
:100FA000CF911F910F91FF90EF90DF90CF90089518
:100FB00082E084BD93E095BD99EF97BD80936E006C
:100FC000789408951F920F920FB60F9211248F9369
:100FD0009F93AF93BF9380916F0290917002A09105
:100FE0007102B09172020196A11DB11D80936F0232
:100FF00090937002A0937102B0937202BF91AF916F
:101000009F918F910F900FBE0F901F901895EF92A8
:10101000FF920F931F93CF93DF938B015F98EB01A8
:10102000E42EF12CCE01801B910B8E159F0534F41C
:1010300069918DE692E00E941207F4CF5F9ADF91EA
:10104000CF911F910F91FF90EF900895579A8DE6E1
:1010500092E00C940C07FC0110820895DC01D696F6
:101060009C91D697D596EC91D597F0E0E91BF109C4
:10107000EA0FFB1F83859150D6969C930895FC013F
:1010800086A90895FC0181AD8F5F6EE10E94780A08
:1010900091AF82AD8F5F82AF0895CF92DF92EF92D2
:1010A000FF920F931F93CF93DF93EC018BAD8230B0
:1010B00019F178F48823B1F0813009F037C16CAFB1
:1010C0008FA998AD860F911D98AF8FAB1DAE82E0B2
:1010D00059C0843009F458C008F452C0853009F46E
:1010E00056C024C16A3A09F022C18AEA90E098AF5A
:1010F0008FAB81E08BAF1CC14CAD423049F018F48E
:101100004423F1F114C1433071F04430F9F00FC1C0
:101110009DAD81E0890F8DAFFE01E90FF11D66A73E
:10112000823028F526C08DAD21E0280F2DAFFE01BD
:10113000E80FF11D66A72230E0F08FA590E0019640
:1011400030E082179307ACF44BAF13C08DAD21E0B4
:10115000280F2DAFFE01E80FF11D66A7222349F0ED
:101160008EA590E0019630E08217930714F483E097
:101170008BAF8FA998AD860F911D98AF8FABD7C05D
:101180006EAF84E08BAFD3C06FAF85E08BAF4EAD59
:1011900050E081E090E02FA938AD4217530711F0DD
:1011A00080E090E02FAD922B892B29F41BAE87E0D5
:1011B0008CAF8FEFBDC08CAD823079F140F48823C5
:1011C000B9F0813009F0B2C08EA58883AFC08330FA
:1011D00051F0843009F0AAC0AFA54A2F50E020E0BA
:1011E00030E0B5E08BC02FA530E080E090E043C058
:1011F0006AEACE010E94420863E0CE010E944208E2
:1012000061E0CE010E9442086881CE010E9442083E
:10121000088110E002551F4F68C06AEACE010E94A3
:10122000420863E0CE010E9442086FA5CE010E94F1
:1012300042080FA510E003551F4FE12CF12C8FA59C
:1012400090E0E816F90608F050C08EA56E01CE0CAD
:10125000DF1CF601E80FF11D6181CE010E944208FA
:101260008EA5F601E80FF11D8181080F111D8FEF8A
:10127000E81AF80AE4CF8217930750F4FE01E80F4A
:10128000F91F40A95EA5E50FF11D41830196F3CF3B
:101290006AEACE010E94420863E0CE010E94420841
:1012A0006FA5CE010E9442080FA510E003551F4F05
:1012B000E12CF12C8FA590E0E816F906B0F48EA58C
:1012C0006E01CE0CDF1CF601E80FF11D6181CE012D
:1012D0000E9442088EA5F601E80FF11D8181080FDA
:1012E000111D8FEFE81AF80AE5CF602FCE010E949A
:1012F0004208612FCE010E94420818C08DA9241710
:10130000350790F491E0980F9DABFE01E20FF31FBB
:1013100090A9E80FF11D93878EA96B2F0E94780A80
:101320009EAB2F5F3F4FEACF8A0F8DAB1BAE81E0A4
:10133000DF91CF911F910F91FF90EF90DF90CF90B1
:1013400008951F93CF93DF93EC01162F6AEA0E9452
:10135000420866E0CE010E944208112331F061E0AC
:10136000CE010E94420861EB05C060E0CE010E9400
:10137000420860EBCE010E94420860E0CE01DF919E
:10138000CF911F910C9442088F929F92AF92BF927F
:10139000CF92DF92EF92FF920F931F93CF93DF9341
:1013A00000D0CDB7DEB74C01162F69016AEA498338
:1013B0005A830E94420862E0C4010E944208612FE1
:1013C000C4010E9442086C2DC4010E9442087601AB
:1013D0008CEAE80EF11CE10EF11C4981042F5A81C0
:1013E000152FC00ED11E0C151D0561F05801F80116
:1013F00061918F01C4010E944208F5018081E80ECD
:10140000F11CF1CF6E2DC4010E9442086F2DC40162
:101410000F900F90DF91CF911F910F91FF90EF9060
:10142000DF90CF90BF90AF909F908F900C94420828
:10143000EF92FF920F931F93CF93DF931F92CDB73D
:10144000DEB77C01062F6AEA49830E94420862E007
:10145000C7010E944208602FC7010E94420861E054
:10146000C7010E94420810E003551F4F4981040F35
:10147000111D642FC7010E944208602FC7010E94FE
:101480004208612FC7010F90DF91CF911F910F91FB
:10149000FF90EF900C944208FC0182AD90E008951B
:1014A000FC01A1ADB0E042AD242F30E0CD01821BA4
:1014B000930B415042AF97FF08C05E96A21BB30B3F
:1014C000AE0FBF1F50968C910895E80FF91F8089C9
:1014D00008950E9470000E948F008CE692E00E94A6
:1014E000FF028AE592E00C94B7021092740208950C
:1014F000991B79E004C0991F961708F0961B881F66
:101500007A95C9F780950895EE0FFF1F0590F49125
:08151000E02D0994F894FFCFCF
:1015180062657374616174206E69657400534F432A
:101528004B5F55445000534F434B5F49505241570E
:1015380000534F434B5F434C4F53455F574149540A
:1015480000534F434B5F45535441424C4953484520
:101558004400534F434B5F4C495354454E00534F3F
:10156800434B5F494E495400534F434B5F434C4FE5
:10157800534544004552524F52000A0D00686965B0
:101588007221210A0D00202A2A2A0A0D00092A2A76
:101598002A204465207365727665722053746174DD
:1015A80075732069732000536572766572207374B1
:1015B800617274696E6721210A0D004F6E7476613D
:1015C8006E67656E3A20004F6E7476616E67656E61
:1015D8002067726F6F7465203D2000436C69656EEB
:1015E8007420636F6E6E65637465640D0A00436CE6
:1015F80069656E7420646973636F6E6E6563746584
:10160800640D0A006572726F720D0A004641494CFA
:101618004544210A0D00095352200020476C6F628F
:10162800200020736F636B20005741544348444F98
:10163800472054494D45522054494D45444F55542F
:1016480021210A0D526573746174696E6720737481
:10165800617465206D616368696E650A0D42415267
:041668004B21000012
:0400000500800197DF
:00000001FF
